{
	"GRADEBOOK.SOL": {
		"GradeBook": {
			"abi": [
				{
					"inputs": [],
					"stateMutability": "nonpayable",
					"type": "constructor"
				},
				{
					"inputs": [
						{
							"internalType": "string",
							"name": "_studentName",
							"type": "string"
						},
						{
							"internalType": "string",
							"name": "_subject",
							"type": "string"
						},
						{
							"internalType": "uint256",
							"name": "_grade",
							"type": "uint256"
						}
					],
					"name": "addGrade",
					"outputs": [],
					"stateMutability": "nonpayable",
					"type": "function"
				},
				{
					"inputs": [
						{
							"internalType": "string",
							"name": "_subject",
							"type": "string"
						}
					],
					"name": "averageGrade",
					"outputs": [
						{
							"internalType": "uint256",
							"name": "",
							"type": "uint256"
						}
					],
					"stateMutability": "view",
					"type": "function"
				},
				{
					"inputs": [
						{
							"internalType": "string",
							"name": "_studentName",
							"type": "string"
						},
						{
							"internalType": "string",
							"name": "_subject",
							"type": "string"
						}
					],
					"name": "getGrade",
					"outputs": [
						{
							"internalType": "uint256",
							"name": "",
							"type": "uint256"
						}
					],
					"stateMutability": "view",
					"type": "function"
				},
				{
					"inputs": [
						{
							"internalType": "uint256",
							"name": "",
							"type": "uint256"
						}
					],
					"name": "grades",
					"outputs": [
						{
							"internalType": "string",
							"name": "studentName",
							"type": "string"
						},
						{
							"internalType": "string",
							"name": "subject",
							"type": "string"
						},
						{
							"internalType": "uint256",
							"name": "grade",
							"type": "uint256"
						}
					],
					"stateMutability": "view",
					"type": "function"
				},
				{
					"inputs": [],
					"name": "owner",
					"outputs": [
						{
							"internalType": "address",
							"name": "",
							"type": "address"
						}
					],
					"stateMutability": "view",
					"type": "function"
				},
				{
					"inputs": [
						{
							"internalType": "string",
							"name": "_studentName",
							"type": "string"
						},
						{
							"internalType": "string",
							"name": "_subject",
							"type": "string"
						},
						{
							"internalType": "uint256",
							"name": "_newGrade",
							"type": "uint256"
						}
					],
					"name": "updateGrade",
					"outputs": [],
					"stateMutability": "nonpayable",
					"type": "function"
				}
			],
			"devdoc": {
				"kind": "dev",
				"methods": {},
				"version": 1
			},
			"evm": {
				"assembly": "    /* \"GRADEBOOK.SOL\":69:2738  contract GradeBook {... */\n  mstore(0x40, 0x80)\n    /* \"GRADEBOOK.SOL\":621:672  constructor() {... */\n  callvalue\n  dup1\n  iszero\n  tag_1\n  jumpi\n  0x00\n  dup1\n  revert\ntag_1:\n  pop\n    /* \"GRADEBOOK.SOL\":654:664  msg.sender */\n  caller\n    /* \"GRADEBOOK.SOL\":646:651  owner */\n  0x01\n  0x00\n    /* \"GRADEBOOK.SOL\":646:664  owner = msg.sender */\n  0x0100\n  exp\n  dup2\n  sload\n  dup2\n  0xffffffffffffffffffffffffffffffffffffffff\n  mul\n  not\n  and\n  swap1\n  dup4\n  0xffffffffffffffffffffffffffffffffffffffff\n  and\n  mul\n  or\n  swap1\n  sstore\n  pop\n    /* \"GRADEBOOK.SOL\":69:2738  contract GradeBook {... */\n  dataSize(sub_0)\n  dup1\n  dataOffset(sub_0)\n  0x00\n  codecopy\n  0x00\n  return\nstop\n\nsub_0: assembly {\n        /* \"GRADEBOOK.SOL\":69:2738  contract GradeBook {... */\n      mstore(0x40, 0x80)\n      callvalue\n      dup1\n      iszero\n      tag_1\n      jumpi\n      0x00\n      dup1\n      revert\n    tag_1:\n      pop\n      jumpi(tag_2, lt(calldatasize, 0x04))\n      shr(0xe0, calldataload(0x00))\n      dup1\n      0x4b22fc62\n      eq\n      tag_3\n      jumpi\n      dup1\n      0x4cae0eb4\n      eq\n      tag_4\n      jumpi\n      dup1\n      0x86d57c08\n      eq\n      tag_5\n      jumpi\n      dup1\n      0x8da5cb5b\n      eq\n      tag_6\n      jumpi\n      dup1\n      0xa8ea6212\n      eq\n      tag_7\n      jumpi\n      dup1\n      0xee43deb7\n      eq\n      tag_8\n      jumpi\n    tag_2:\n      0x00\n      dup1\n      revert\n        /* \"GRADEBOOK.SOL\":273:294  Grade[] public grades */\n    tag_3:\n      tag_9\n      0x04\n      dup1\n      calldatasize\n      sub\n      dup2\n      add\n      swap1\n      tag_10\n      swap2\n      swap1\n      tag_11\n      jump\t// in\n    tag_10:\n      tag_12\n      jump\t// in\n    tag_9:\n      mload(0x40)\n      tag_13\n      swap4\n      swap3\n      swap2\n      swap1\n      tag_14\n      jump\t// in\n    tag_13:\n      mload(0x40)\n      dup1\n      swap2\n      sub\n      swap1\n      return\n        /* \"GRADEBOOK.SOL\":1595:2098  function getGrade(string memory _studentName, string memory _subject) public view returns (uint256) {... */\n    tag_4:\n      tag_15\n      0x04\n      dup1\n      calldatasize\n      sub\n      dup2\n      add\n      swap1\n      tag_16\n      swap2\n      swap1\n      tag_17\n      jump\t// in\n    tag_16:\n      tag_18\n      jump\t// in\n    tag_15:\n      mload(0x40)\n      tag_19\n      swap2\n      swap1\n      tag_20\n      jump\t// in\n    tag_19:\n      mload(0x40)\n      dup1\n      swap2\n      sub\n      swap1\n      return\n        /* \"GRADEBOOK.SOL\":1018:1510  function updateGrade(string memory _studentName, string memory _subject, uint256 _newGrade) public onlyOwner {... */\n    tag_5:\n      tag_21\n      0x04\n      dup1\n      calldatasize\n      sub\n      dup2\n      add\n      swap1\n      tag_22\n      swap2\n      swap1\n      tag_23\n      jump\t// in\n    tag_22:\n      tag_24\n      jump\t// in\n    tag_21:\n      stop\n        /* \"GRADEBOOK.SOL\":346:366  address public owner */\n    tag_6:\n      tag_25\n      tag_26\n      jump\t// in\n    tag_25:\n      mload(0x40)\n      tag_27\n      swap2\n      swap1\n      tag_28\n      jump\t// in\n    tag_27:\n      mload(0x40)\n      dup1\n      swap2\n      sub\n      swap1\n      return\n        /* \"GRADEBOOK.SOL\":722:937  function addGrade(string memory _studentName, string memory _subject, uint256 _grade) public onlyOwner {... */\n    tag_7:\n      tag_29\n      0x04\n      dup1\n      calldatasize\n      sub\n      dup2\n      add\n      swap1\n      tag_30\n      swap2\n      swap1\n      tag_23\n      jump\t// in\n    tag_30:\n      tag_31\n      jump\t// in\n    tag_29:\n      stop\n        /* \"GRADEBOOK.SOL\":2204:2735  function averageGrade(string memory _subject) public view returns (uint256) {... */\n    tag_8:\n      tag_32\n      0x04\n      dup1\n      calldatasize\n      sub\n      dup2\n      add\n      swap1\n      tag_33\n      swap2\n      swap1\n      tag_34\n      jump\t// in\n    tag_33:\n      tag_35\n      jump\t// in\n    tag_32:\n      mload(0x40)\n      tag_36\n      swap2\n      swap1\n      tag_20\n      jump\t// in\n    tag_36:\n      mload(0x40)\n      dup1\n      swap2\n      sub\n      swap1\n      return\n        /* \"GRADEBOOK.SOL\":273:294  Grade[] public grades */\n    tag_12:\n      0x00\n      dup2\n      dup2\n      sload\n      dup2\n      lt\n      tag_37\n      jumpi\n      0x00\n      dup1\n      revert\n    tag_37:\n      swap1\n      0x00\n      mstore\n      keccak256(0x00, 0x20)\n      swap1\n      0x03\n      mul\n      add\n      0x00\n      swap2\n      pop\n      swap1\n      pop\n      dup1\n      0x00\n      add\n      dup1\n      sload\n      tag_39\n      swap1\n      tag_40\n      jump\t// in\n    tag_39:\n      dup1\n      0x1f\n      add\n      0x20\n      dup1\n      swap2\n      div\n      mul\n      0x20\n      add\n      mload(0x40)\n      swap1\n      dup2\n      add\n      0x40\n      mstore\n      dup1\n      swap3\n      swap2\n      swap1\n      dup2\n      dup2\n      mstore\n      0x20\n      add\n      dup3\n      dup1\n      sload\n      tag_41\n      swap1\n      tag_40\n      jump\t// in\n    tag_41:\n      dup1\n      iszero\n      tag_42\n      jumpi\n      dup1\n      0x1f\n      lt\n      tag_43\n      jumpi\n      0x0100\n      dup1\n      dup4\n      sload\n      div\n      mul\n      dup4\n      mstore\n      swap2\n      0x20\n      add\n      swap2\n      jump(tag_42)\n    tag_43:\n      dup3\n      add\n      swap2\n      swap1\n      0x00\n      mstore\n      keccak256(0x00, 0x20)\n      swap1\n    tag_44:\n      dup2\n      sload\n      dup2\n      mstore\n      swap1\n      0x01\n      add\n      swap1\n      0x20\n      add\n      dup1\n      dup4\n      gt\n      tag_44\n      jumpi\n      dup3\n      swap1\n      sub\n      0x1f\n      and\n      dup3\n      add\n      swap2\n    tag_42:\n      pop\n      pop\n      pop\n      pop\n      pop\n      swap1\n      dup1\n      0x01\n      add\n      dup1\n      sload\n      tag_45\n      swap1\n      tag_40\n      jump\t// in\n    tag_45:\n      dup1\n      0x1f\n      add\n      0x20\n      dup1\n      swap2\n      div\n      mul\n      0x20\n      add\n      mload(0x40)\n      swap1\n      dup2\n      add\n      0x40\n      mstore\n      dup1\n      swap3\n      swap2\n      swap1\n      dup2\n      dup2\n      mstore\n      0x20\n      add\n      dup3\n      dup1\n      sload\n      tag_46\n      swap1\n      tag_40\n      jump\t// in\n    tag_46:\n      dup1\n      iszero\n      tag_47\n      jumpi\n      dup1\n      0x1f\n      lt\n      tag_48\n      jumpi\n      0x0100\n      dup1\n      dup4\n      sload\n      div\n      mul\n      dup4\n      mstore\n      swap2\n      0x20\n      add\n      swap2\n      jump(tag_47)\n    tag_48:\n      dup3\n      add\n      swap2\n      swap1\n      0x00\n      mstore\n      keccak256(0x00, 0x20)\n      swap1\n    tag_49:\n      dup2\n      sload\n      dup2\n      mstore\n      swap1\n      0x01\n      add\n      swap1\n      0x20\n      add\n      dup1\n      dup4\n      gt\n      tag_49\n      jumpi\n      dup3\n      swap1\n      sub\n      0x1f\n      and\n      dup3\n      add\n      swap2\n    tag_47:\n      pop\n      pop\n      pop\n      pop\n      pop\n      swap1\n      dup1\n      0x02\n      add\n      sload\n      swap1\n      pop\n      dup4\n      jump\t// out\n        /* \"GRADEBOOK.SOL\":1595:2098  function getGrade(string memory _studentName, string memory _subject) public view returns (uint256) {... */\n    tag_18:\n        /* \"GRADEBOOK.SOL\":1686:1693  uint256 */\n      0x00\n        /* \"GRADEBOOK.SOL\":1711:1720  uint256 i */\n      dup1\n        /* \"GRADEBOOK.SOL\":1723:1724  0 */\n      0x00\n        /* \"GRADEBOOK.SOL\":1711:1724  uint256 i = 0 */\n      swap1\n      pop\n        /* \"GRADEBOOK.SOL\":1706:2042  for (uint256 i = 0; i < grades.length; i++) {... */\n    tag_51:\n        /* \"GRADEBOOK.SOL\":1730:1736  grades */\n      0x00\n        /* \"GRADEBOOK.SOL\":1730:1743  grades.length */\n      dup1\n      sload\n      swap1\n      pop\n        /* \"GRADEBOOK.SOL\":1726:1727  i */\n      dup2\n        /* \"GRADEBOOK.SOL\":1726:1743  i < grades.length */\n      lt\n        /* \"GRADEBOOK.SOL\":1706:2042  for (uint256 i = 0; i < grades.length; i++) {... */\n      iszero\n      tag_52\n      jumpi\n        /* \"GRADEBOOK.SOL\":1850:1862  _studentName */\n      dup4\n        /* \"GRADEBOOK.SOL\":1833:1863  abi.encodePacked(_studentName) */\n      add(0x20, mload(0x40))\n      tag_54\n      swap2\n      swap1\n      tag_55\n      jump\t// in\n    tag_54:\n      mload(0x40)\n      0x20\n      dup2\n      dup4\n      sub\n      sub\n      dup2\n      mstore\n      swap1\n      0x40\n      mstore\n        /* \"GRADEBOOK.SOL\":1823:1864  keccak256(abi.encodePacked(_studentName)) */\n      dup1\n      mload\n      swap1\n      0x20\n      add\n      keccak256\n        /* \"GRADEBOOK.SOL\":1796:1802  grades */\n      0x00\n        /* \"GRADEBOOK.SOL\":1803:1804  i */\n      dup3\n        /* \"GRADEBOOK.SOL\":1796:1805  grades[i] */\n      dup2\n      sload\n      dup2\n      lt\n      tag_56\n      jumpi\n      tag_57\n      tag_58\n      jump\t// in\n    tag_57:\n    tag_56:\n      swap1\n      0x00\n      mstore\n      keccak256(0x00, 0x20)\n      swap1\n      0x03\n      mul\n      add\n        /* \"GRADEBOOK.SOL\":1796:1817  grades[i].studentName */\n      0x00\n      add\n        /* \"GRADEBOOK.SOL\":1779:1818  abi.encodePacked(grades[i].studentName) */\n      add(0x20, mload(0x40))\n      tag_60\n      swap2\n      swap1\n      tag_61\n      jump\t// in\n    tag_60:\n      mload(0x40)\n      0x20\n      dup2\n      dup4\n      sub\n      sub\n      dup2\n      mstore\n      swap1\n      0x40\n      mstore\n        /* \"GRADEBOOK.SOL\":1769:1819  keccak256(abi.encodePacked(grades[i].studentName)) */\n      dup1\n      mload\n      swap1\n      0x20\n      add\n      keccak256\n        /* \"GRADEBOOK.SOL\":1769:1864  keccak256(abi.encodePacked(grades[i].studentName)) == keccak256(abi.encodePacked(_studentName)) */\n      eq\n        /* \"GRADEBOOK.SOL\":1769:1972  keccak256(abi.encodePacked(grades[i].studentName)) == keccak256(abi.encodePacked(_studentName)) &&... */\n      dup1\n      iszero\n      tag_62\n      jumpi\n      pop\n        /* \"GRADEBOOK.SOL\":1962:1970  _subject */\n      dup3\n        /* \"GRADEBOOK.SOL\":1945:1971  abi.encodePacked(_subject) */\n      add(0x20, mload(0x40))\n      tag_63\n      swap2\n      swap1\n      tag_55\n      jump\t// in\n    tag_63:\n      mload(0x40)\n      0x20\n      dup2\n      dup4\n      sub\n      sub\n      dup2\n      mstore\n      swap1\n      0x40\n      mstore\n        /* \"GRADEBOOK.SOL\":1935:1972  keccak256(abi.encodePacked(_subject)) */\n      dup1\n      mload\n      swap1\n      0x20\n      add\n      keccak256\n        /* \"GRADEBOOK.SOL\":1912:1918  grades */\n      0x00\n        /* \"GRADEBOOK.SOL\":1919:1920  i */\n      dup3\n        /* \"GRADEBOOK.SOL\":1912:1921  grades[i] */\n      dup2\n      sload\n      dup2\n      lt\n      tag_64\n      jumpi\n      tag_65\n      tag_58\n      jump\t// in\n    tag_65:\n    tag_64:\n      swap1\n      0x00\n      mstore\n      keccak256(0x00, 0x20)\n      swap1\n      0x03\n      mul\n      add\n        /* \"GRADEBOOK.SOL\":1912:1929  grades[i].subject */\n      0x01\n      add\n        /* \"GRADEBOOK.SOL\":1895:1930  abi.encodePacked(grades[i].subject) */\n      add(0x20, mload(0x40))\n      tag_67\n      swap2\n      swap1\n      tag_61\n      jump\t// in\n    tag_67:\n      mload(0x40)\n      0x20\n      dup2\n      dup4\n      sub\n      sub\n      dup2\n      mstore\n      swap1\n      0x40\n      mstore\n        /* \"GRADEBOOK.SOL\":1885:1931  keccak256(abi.encodePacked(grades[i].subject)) */\n      dup1\n      mload\n      swap1\n      0x20\n      add\n      keccak256\n        /* \"GRADEBOOK.SOL\":1885:1972  keccak256(abi.encodePacked(grades[i].subject)) == keccak256(abi.encodePacked(_subject)) */\n      eq\n        /* \"GRADEBOOK.SOL\":1769:1972  keccak256(abi.encodePacked(grades[i].studentName)) == keccak256(abi.encodePacked(_studentName)) &&... */\n    tag_62:\n        /* \"GRADEBOOK.SOL\":1765:2031  if (keccak256(abi.encodePacked(grades[i].studentName)) == keccak256(abi.encodePacked(_studentName)) &&... */\n      iszero\n      tag_68\n      jumpi\n        /* \"GRADEBOOK.SOL\":2000:2006  grades */\n      0x00\n        /* \"GRADEBOOK.SOL\":2007:2008  i */\n      dup2\n        /* \"GRADEBOOK.SOL\":2000:2009  grades[i] */\n      dup2\n      sload\n      dup2\n      lt\n      tag_69\n      jumpi\n      tag_70\n      tag_58\n      jump\t// in\n    tag_70:\n    tag_69:\n      swap1\n      0x00\n      mstore\n      keccak256(0x00, 0x20)\n      swap1\n      0x03\n      mul\n      add\n        /* \"GRADEBOOK.SOL\":2000:2015  grades[i].grade */\n      0x02\n      add\n      sload\n        /* \"GRADEBOOK.SOL\":1993:2015  return grades[i].grade */\n      swap2\n      pop\n      pop\n      jump(tag_50)\n        /* \"GRADEBOOK.SOL\":1765:2031  if (keccak256(abi.encodePacked(grades[i].studentName)) == keccak256(abi.encodePacked(_studentName)) &&... */\n    tag_68:\n        /* \"GRADEBOOK.SOL\":1745:1748  i++ */\n      dup1\n      dup1\n      0x01\n      add\n      swap2\n      pop\n      pop\n        /* \"GRADEBOOK.SOL\":1706:2042  for (uint256 i = 0; i < grades.length; i++) {... */\n      jump(tag_51)\n    tag_52:\n      pop\n        /* \"GRADEBOOK.SOL\":2059:2060  0 */\n      0x00\n        /* \"GRADEBOOK.SOL\":2052:2060  return 0 */\n      swap1\n      pop\n        /* \"GRADEBOOK.SOL\":1595:2098  function getGrade(string memory _studentName, string memory _subject) public view returns (uint256) {... */\n    tag_50:\n      swap3\n      swap2\n      pop\n      pop\n      jump\t// out\n        /* \"GRADEBOOK.SOL\":1018:1510  function updateGrade(string memory _studentName, string memory _subject, uint256 _newGrade) public onlyOwner {... */\n    tag_24:\n        /* \"GRADEBOOK.SOL\":492:497  owner */\n      0x01\n      0x00\n      swap1\n      sload\n      swap1\n      0x0100\n      exp\n      swap1\n      div\n      0xffffffffffffffffffffffffffffffffffffffff\n      and\n        /* \"GRADEBOOK.SOL\":478:497  msg.sender == owner */\n      0xffffffffffffffffffffffffffffffffffffffff\n      and\n        /* \"GRADEBOOK.SOL\":478:488  msg.sender */\n      caller\n        /* \"GRADEBOOK.SOL\":478:497  msg.sender == owner */\n      0xffffffffffffffffffffffffffffffffffffffff\n      and\n      eq\n        /* \"GRADEBOOK.SOL\":470:540  require(msg.sender == owner, \"Only the owner can perform this action\") */\n      tag_73\n      jumpi\n      mload(0x40)\n      0x08c379a000000000000000000000000000000000000000000000000000000000\n      dup2\n      mstore\n      0x04\n      add\n      tag_74\n      swap1\n      tag_75\n      jump\t// in\n    tag_74:\n      mload(0x40)\n      dup1\n      swap2\n      sub\n      swap1\n      revert\n    tag_73:\n        /* \"GRADEBOOK.SOL\":1143:1152  uint256 i */\n      0x00\n        /* \"GRADEBOOK.SOL\":1138:1503  for (uint256 i = 0; i < grades.length; i++) {... */\n    tag_77:\n        /* \"GRADEBOOK.SOL\":1162:1168  grades */\n      0x00\n        /* \"GRADEBOOK.SOL\":1162:1175  grades.length */\n      dup1\n      sload\n      swap1\n      pop\n        /* \"GRADEBOOK.SOL\":1158:1159  i */\n      dup2\n        /* \"GRADEBOOK.SOL\":1158:1175  i < grades.length */\n      lt\n        /* \"GRADEBOOK.SOL\":1138:1503  for (uint256 i = 0; i < grades.length; i++) {... */\n      iszero\n      tag_78\n      jumpi\n        /* \"GRADEBOOK.SOL\":1282:1294  _studentName */\n      dup4\n        /* \"GRADEBOOK.SOL\":1265:1295  abi.encodePacked(_studentName) */\n      add(0x20, mload(0x40))\n      tag_80\n      swap2\n      swap1\n      tag_55\n      jump\t// in\n    tag_80:\n      mload(0x40)\n      0x20\n      dup2\n      dup4\n      sub\n      sub\n      dup2\n      mstore\n      swap1\n      0x40\n      mstore\n        /* \"GRADEBOOK.SOL\":1255:1296  keccak256(abi.encodePacked(_studentName)) */\n      dup1\n      mload\n      swap1\n      0x20\n      add\n      keccak256\n        /* \"GRADEBOOK.SOL\":1228:1234  grades */\n      0x00\n        /* \"GRADEBOOK.SOL\":1235:1236  i */\n      dup3\n        /* \"GRADEBOOK.SOL\":1228:1237  grades[i] */\n      dup2\n      sload\n      dup2\n      lt\n      tag_81\n      jumpi\n      tag_82\n      tag_58\n      jump\t// in\n    tag_82:\n    tag_81:\n      swap1\n      0x00\n      mstore\n      keccak256(0x00, 0x20)\n      swap1\n      0x03\n      mul\n      add\n        /* \"GRADEBOOK.SOL\":1228:1249  grades[i].studentName */\n      0x00\n      add\n        /* \"GRADEBOOK.SOL\":1211:1250  abi.encodePacked(grades[i].studentName) */\n      add(0x20, mload(0x40))\n      tag_84\n      swap2\n      swap1\n      tag_61\n      jump\t// in\n    tag_84:\n      mload(0x40)\n      0x20\n      dup2\n      dup4\n      sub\n      sub\n      dup2\n      mstore\n      swap1\n      0x40\n      mstore\n        /* \"GRADEBOOK.SOL\":1201:1251  keccak256(abi.encodePacked(grades[i].studentName)) */\n      dup1\n      mload\n      swap1\n      0x20\n      add\n      keccak256\n        /* \"GRADEBOOK.SOL\":1201:1296  keccak256(abi.encodePacked(grades[i].studentName)) == keccak256(abi.encodePacked(_studentName)) */\n      eq\n        /* \"GRADEBOOK.SOL\":1201:1404  keccak256(abi.encodePacked(grades[i].studentName)) == keccak256(abi.encodePacked(_studentName)) &&... */\n      dup1\n      iszero\n      tag_85\n      jumpi\n      pop\n        /* \"GRADEBOOK.SOL\":1394:1402  _subject */\n      dup3\n        /* \"GRADEBOOK.SOL\":1377:1403  abi.encodePacked(_subject) */\n      add(0x20, mload(0x40))\n      tag_86\n      swap2\n      swap1\n      tag_55\n      jump\t// in\n    tag_86:\n      mload(0x40)\n      0x20\n      dup2\n      dup4\n      sub\n      sub\n      dup2\n      mstore\n      swap1\n      0x40\n      mstore\n        /* \"GRADEBOOK.SOL\":1367:1404  keccak256(abi.encodePacked(_subject)) */\n      dup1\n      mload\n      swap1\n      0x20\n      add\n      keccak256\n        /* \"GRADEBOOK.SOL\":1344:1350  grades */\n      0x00\n        /* \"GRADEBOOK.SOL\":1351:1352  i */\n      dup3\n        /* \"GRADEBOOK.SOL\":1344:1353  grades[i] */\n      dup2\n      sload\n      dup2\n      lt\n      tag_87\n      jumpi\n      tag_88\n      tag_58\n      jump\t// in\n    tag_88:\n    tag_87:\n      swap1\n      0x00\n      mstore\n      keccak256(0x00, 0x20)\n      swap1\n      0x03\n      mul\n      add\n        /* \"GRADEBOOK.SOL\":1344:1361  grades[i].subject */\n      0x01\n      add\n        /* \"GRADEBOOK.SOL\":1327:1362  abi.encodePacked(grades[i].subject) */\n      add(0x20, mload(0x40))\n      tag_90\n      swap2\n      swap1\n      tag_61\n      jump\t// in\n    tag_90:\n      mload(0x40)\n      0x20\n      dup2\n      dup4\n      sub\n      sub\n      dup2\n      mstore\n      swap1\n      0x40\n      mstore\n        /* \"GRADEBOOK.SOL\":1317:1363  keccak256(abi.encodePacked(grades[i].subject)) */\n      dup1\n      mload\n      swap1\n      0x20\n      add\n      keccak256\n        /* \"GRADEBOOK.SOL\":1317:1404  keccak256(abi.encodePacked(grades[i].subject)) == keccak256(abi.encodePacked(_subject)) */\n      eq\n        /* \"GRADEBOOK.SOL\":1201:1404  keccak256(abi.encodePacked(grades[i].studentName)) == keccak256(abi.encodePacked(_studentName)) &&... */\n    tag_85:\n        /* \"GRADEBOOK.SOL\":1197:1492  if (keccak256(abi.encodePacked(grades[i].studentName)) == keccak256(abi.encodePacked(_studentName)) &&... */\n      iszero\n      tag_91\n      jumpi\n        /* \"GRADEBOOK.SOL\":1443:1452  _newGrade */\n      dup2\n        /* \"GRADEBOOK.SOL\":1425:1431  grades */\n      0x00\n        /* \"GRADEBOOK.SOL\":1432:1433  i */\n      dup3\n        /* \"GRADEBOOK.SOL\":1425:1434  grades[i] */\n      dup2\n      sload\n      dup2\n      lt\n      tag_92\n      jumpi\n      tag_93\n      tag_58\n      jump\t// in\n    tag_93:\n    tag_92:\n      swap1\n      0x00\n      mstore\n      keccak256(0x00, 0x20)\n      swap1\n      0x03\n      mul\n      add\n        /* \"GRADEBOOK.SOL\":1425:1440  grades[i].grade */\n      0x02\n      add\n        /* \"GRADEBOOK.SOL\":1425:1452  grades[i].grade = _newGrade */\n      dup2\n      swap1\n      sstore\n      pop\n        /* \"GRADEBOOK.SOL\":1471:1476  break */\n      jump(tag_78)\n        /* \"GRADEBOOK.SOL\":1197:1492  if (keccak256(abi.encodePacked(grades[i].studentName)) == keccak256(abi.encodePacked(_studentName)) &&... */\n    tag_91:\n        /* \"GRADEBOOK.SOL\":1177:1180  i++ */\n      dup1\n      dup1\n      0x01\n      add\n      swap2\n      pop\n      pop\n        /* \"GRADEBOOK.SOL\":1138:1503  for (uint256 i = 0; i < grades.length; i++) {... */\n      jump(tag_77)\n    tag_78:\n      pop\n        /* \"GRADEBOOK.SOL\":1018:1510  function updateGrade(string memory _studentName, string memory _subject, uint256 _newGrade) public onlyOwner {... */\n      pop\n      pop\n      pop\n      jump\t// out\n        /* \"GRADEBOOK.SOL\":346:366  address public owner */\n    tag_26:\n      0x01\n      0x00\n      swap1\n      sload\n      swap1\n      0x0100\n      exp\n      swap1\n      div\n      0xffffffffffffffffffffffffffffffffffffffff\n      and\n      dup2\n      jump\t// out\n        /* \"GRADEBOOK.SOL\":722:937  function addGrade(string memory _studentName, string memory _subject, uint256 _grade) public onlyOwner {... */\n    tag_31:\n        /* \"GRADEBOOK.SOL\":492:497  owner */\n      0x01\n      0x00\n      swap1\n      sload\n      swap1\n      0x0100\n      exp\n      swap1\n      div\n      0xffffffffffffffffffffffffffffffffffffffff\n      and\n        /* \"GRADEBOOK.SOL\":478:497  msg.sender == owner */\n      0xffffffffffffffffffffffffffffffffffffffff\n      and\n        /* \"GRADEBOOK.SOL\":478:488  msg.sender */\n      caller\n        /* \"GRADEBOOK.SOL\":478:497  msg.sender == owner */\n      0xffffffffffffffffffffffffffffffffffffffff\n      and\n      eq\n        /* \"GRADEBOOK.SOL\":470:540  require(msg.sender == owner, \"Only the owner can perform this action\") */\n      tag_96\n      jumpi\n      mload(0x40)\n      0x08c379a000000000000000000000000000000000000000000000000000000000\n      dup2\n      mstore\n      0x04\n      add\n      tag_97\n      swap1\n      tag_75\n      jump\t// in\n    tag_97:\n      mload(0x40)\n      dup1\n      swap2\n      sub\n      swap1\n      revert\n    tag_96:\n        /* \"GRADEBOOK.SOL\":836:857  Grade memory newGrade */\n      0x00\n        /* \"GRADEBOOK.SOL\":860:897  Grade(_studentName, _subject, _grade) */\n      mload(0x40)\n      dup1\n      0x60\n      add\n      0x40\n      mstore\n      dup1\n        /* \"GRADEBOOK.SOL\":866:878  _studentName */\n      dup6\n        /* \"GRADEBOOK.SOL\":860:897  Grade(_studentName, _subject, _grade) */\n      dup2\n      mstore\n      0x20\n      add\n        /* \"GRADEBOOK.SOL\":880:888  _subject */\n      dup5\n        /* \"GRADEBOOK.SOL\":860:897  Grade(_studentName, _subject, _grade) */\n      dup2\n      mstore\n      0x20\n      add\n        /* \"GRADEBOOK.SOL\":890:896  _grade */\n      dup4\n        /* \"GRADEBOOK.SOL\":860:897  Grade(_studentName, _subject, _grade) */\n      dup2\n      mstore\n      pop\n        /* \"GRADEBOOK.SOL\":836:897  Grade memory newGrade = Grade(_studentName, _subject, _grade) */\n      swap1\n      pop\n        /* \"GRADEBOOK.SOL\":908:914  grades */\n      0x00\n        /* \"GRADEBOOK.SOL\":920:928  newGrade */\n      dup2\n        /* \"GRADEBOOK.SOL\":908:929  grades.push(newGrade) */\n      swap1\n      dup1\n      0x01\n      dup2\n      sload\n      add\n      dup1\n      dup3\n      sstore\n      dup1\n      swap2\n      pop\n      pop\n      0x01\n      swap1\n      sub\n      swap1\n      0x00\n      mstore\n      keccak256(0x00, 0x20)\n      swap1\n      0x03\n      mul\n      add\n      0x00\n      swap1\n      swap2\n      swap1\n      swap2\n      swap1\n      swap2\n      pop\n      0x00\n      dup3\n      add\n      mload\n      dup2\n      0x00\n      add\n      swap1\n      dup2\n      tag_100\n      swap2\n      swap1\n      tag_101\n      jump\t// in\n    tag_100:\n      pop\n      0x20\n      dup3\n      add\n      mload\n      dup2\n      0x01\n      add\n      swap1\n      dup2\n      tag_102\n      swap2\n      swap1\n      tag_101\n      jump\t// in\n    tag_102:\n      pop\n      0x40\n      dup3\n      add\n      mload\n      dup2\n      0x02\n      add\n      sstore\n      pop\n      pop\n        /* \"GRADEBOOK.SOL\":825:937  {... */\n      pop\n        /* \"GRADEBOOK.SOL\":722:937  function addGrade(string memory _studentName, string memory _subject, uint256 _grade) public onlyOwner {... */\n      pop\n      pop\n      pop\n      jump\t// out\n        /* \"GRADEBOOK.SOL\":2204:2735  function averageGrade(string memory _subject) public view returns (uint256) {... */\n    tag_35:\n        /* \"GRADEBOOK.SOL\":2271:2278  uint256 */\n      0x00\n        /* \"GRADEBOOK.SOL\":2291:2302  uint256 sum */\n      dup1\n        /* \"GRADEBOOK.SOL\":2305:2306  0 */\n      0x00\n        /* \"GRADEBOOK.SOL\":2291:2306  uint256 sum = 0 */\n      swap1\n      pop\n        /* \"GRADEBOOK.SOL\":2317:2330  uint256 count */\n      0x00\n        /* \"GRADEBOOK.SOL\":2350:2359  uint256 i */\n      dup1\n        /* \"GRADEBOOK.SOL\":2345:2591  for (uint256 i = 0; i < grades.length; i++) {... */\n    tag_104:\n        /* \"GRADEBOOK.SOL\":2369:2375  grades */\n      0x00\n        /* \"GRADEBOOK.SOL\":2369:2382  grades.length */\n      dup1\n      sload\n      swap1\n      pop\n        /* \"GRADEBOOK.SOL\":2365:2366  i */\n      dup2\n        /* \"GRADEBOOK.SOL\":2365:2382  i < grades.length */\n      lt\n        /* \"GRADEBOOK.SOL\":2345:2591  for (uint256 i = 0; i < grades.length; i++) {... */\n      iszero\n      tag_105\n      jumpi\n        /* \"GRADEBOOK.SOL\":2485:2493  _subject */\n      dup5\n        /* \"GRADEBOOK.SOL\":2468:2494  abi.encodePacked(_subject) */\n      add(0x20, mload(0x40))\n      tag_107\n      swap2\n      swap1\n      tag_55\n      jump\t// in\n    tag_107:\n      mload(0x40)\n      0x20\n      dup2\n      dup4\n      sub\n      sub\n      dup2\n      mstore\n      swap1\n      0x40\n      mstore\n        /* \"GRADEBOOK.SOL\":2458:2495  keccak256(abi.encodePacked(_subject)) */\n      dup1\n      mload\n      swap1\n      0x20\n      add\n      keccak256\n        /* \"GRADEBOOK.SOL\":2435:2441  grades */\n      0x00\n        /* \"GRADEBOOK.SOL\":2442:2443  i */\n      dup3\n        /* \"GRADEBOOK.SOL\":2435:2444  grades[i] */\n      dup2\n      sload\n      dup2\n      lt\n      tag_108\n      jumpi\n      tag_109\n      tag_58\n      jump\t// in\n    tag_109:\n    tag_108:\n      swap1\n      0x00\n      mstore\n      keccak256(0x00, 0x20)\n      swap1\n      0x03\n      mul\n      add\n        /* \"GRADEBOOK.SOL\":2435:2452  grades[i].subject */\n      0x01\n      add\n        /* \"GRADEBOOK.SOL\":2418:2453  abi.encodePacked(grades[i].subject) */\n      add(0x20, mload(0x40))\n      tag_111\n      swap2\n      swap1\n      tag_61\n      jump\t// in\n    tag_111:\n      mload(0x40)\n      0x20\n      dup2\n      dup4\n      sub\n      sub\n      dup2\n      mstore\n      swap1\n      0x40\n      mstore\n        /* \"GRADEBOOK.SOL\":2408:2454  keccak256(abi.encodePacked(grades[i].subject)) */\n      dup1\n      mload\n      swap1\n      0x20\n      add\n      keccak256\n        /* \"GRADEBOOK.SOL\":2408:2495  keccak256(abi.encodePacked(grades[i].subject)) == keccak256(abi.encodePacked(_subject)) */\n      sub\n        /* \"GRADEBOOK.SOL\":2404:2580  if (keccak256(abi.encodePacked(grades[i].subject)) == keccak256(abi.encodePacked(_subject))) {... */\n      tag_112\n      jumpi\n        /* \"GRADEBOOK.SOL\":2523:2529  grades */\n      0x00\n        /* \"GRADEBOOK.SOL\":2530:2531  i */\n      dup2\n        /* \"GRADEBOOK.SOL\":2523:2532  grades[i] */\n      dup2\n      sload\n      dup2\n      lt\n      tag_113\n      jumpi\n      tag_114\n      tag_58\n      jump\t// in\n    tag_114:\n    tag_113:\n      swap1\n      0x00\n      mstore\n      keccak256(0x00, 0x20)\n      swap1\n      0x03\n      mul\n      add\n        /* \"GRADEBOOK.SOL\":2523:2538  grades[i].grade */\n      0x02\n      add\n      sload\n        /* \"GRADEBOOK.SOL\":2516:2538  sum += grades[i].grade */\n      dup4\n      tag_116\n      swap2\n      swap1\n      tag_117\n      jump\t// in\n    tag_116:\n      swap3\n      pop\n        /* \"GRADEBOOK.SOL\":2557:2564  count++ */\n      dup2\n      dup1\n      tag_118\n      swap1\n      tag_119\n      jump\t// in\n    tag_118:\n      swap3\n      pop\n      pop\n        /* \"GRADEBOOK.SOL\":2404:2580  if (keccak256(abi.encodePacked(grades[i].subject)) == keccak256(abi.encodePacked(_subject))) {... */\n    tag_112:\n        /* \"GRADEBOOK.SOL\":2384:2387  i++ */\n      dup1\n      dup1\n      0x01\n      add\n      swap2\n      pop\n      pop\n        /* \"GRADEBOOK.SOL\":2345:2591  for (uint256 i = 0; i < grades.length; i++) {... */\n      jump(tag_104)\n    tag_105:\n      pop\n        /* \"GRADEBOOK.SOL\":2614:2615  0 */\n      0x00\n        /* \"GRADEBOOK.SOL\":2605:2610  count */\n      dup2\n        /* \"GRADEBOOK.SOL\":2605:2615  count == 0 */\n      sub\n        /* \"GRADEBOOK.SOL\":2601:2699  if (count == 0) {... */\n      tag_120\n      jumpi\n        /* \"GRADEBOOK.SOL\":2639:2640  0 */\n      0x00\n        /* \"GRADEBOOK.SOL\":2632:2640  return 0 */\n      swap3\n      pop\n      pop\n      pop\n      jump(tag_103)\n        /* \"GRADEBOOK.SOL\":2601:2699  if (count == 0) {... */\n    tag_120:\n        /* \"GRADEBOOK.SOL\":2722:2727  count */\n      dup1\n        /* \"GRADEBOOK.SOL\":2716:2719  sum */\n      dup3\n        /* \"GRADEBOOK.SOL\":2716:2727  sum / count */\n      tag_121\n      swap2\n      swap1\n      tag_122\n      jump\t// in\n    tag_121:\n        /* \"GRADEBOOK.SOL\":2709:2727  return sum / count */\n      swap3\n      pop\n      pop\n      pop\n        /* \"GRADEBOOK.SOL\":2204:2735  function averageGrade(string memory _subject) public view returns (uint256) {... */\n    tag_103:\n      swap2\n      swap1\n      pop\n      jump\t// out\n        /* \"#utility.yul\":7:82   */\n    tag_123:\n        /* \"#utility.yul\":40:46   */\n      0x00\n        /* \"#utility.yul\":73:75   */\n      0x40\n        /* \"#utility.yul\":67:76   */\n      mload\n        /* \"#utility.yul\":57:76   */\n      swap1\n      pop\n        /* \"#utility.yul\":7:82   */\n      swap1\n      jump\t// out\n        /* \"#utility.yul\":88:205   */\n    tag_124:\n        /* \"#utility.yul\":197:198   */\n      0x00\n        /* \"#utility.yul\":194:195   */\n      dup1\n        /* \"#utility.yul\":187:199   */\n      revert\n        /* \"#utility.yul\":211:328   */\n    tag_125:\n        /* \"#utility.yul\":320:321   */\n      0x00\n        /* \"#utility.yul\":317:318   */\n      dup1\n        /* \"#utility.yul\":310:322   */\n      revert\n        /* \"#utility.yul\":334:411   */\n    tag_126:\n        /* \"#utility.yul\":371:378   */\n      0x00\n        /* \"#utility.yul\":400:405   */\n      dup2\n        /* \"#utility.yul\":389:405   */\n      swap1\n      pop\n        /* \"#utility.yul\":334:411   */\n      swap2\n      swap1\n      pop\n      jump\t// out\n        /* \"#utility.yul\":417:539   */\n    tag_127:\n        /* \"#utility.yul\":490:514   */\n      tag_176\n        /* \"#utility.yul\":508:513   */\n      dup2\n        /* \"#utility.yul\":490:514   */\n      tag_126\n      jump\t// in\n    tag_176:\n        /* \"#utility.yul\":483:488   */\n      dup2\n        /* \"#utility.yul\":480:515   */\n      eq\n        /* \"#utility.yul\":470:533   */\n      tag_177\n      jumpi\n        /* \"#utility.yul\":529:530   */\n      0x00\n        /* \"#utility.yul\":526:527   */\n      dup1\n        /* \"#utility.yul\":519:531   */\n      revert\n        /* \"#utility.yul\":470:533   */\n    tag_177:\n        /* \"#utility.yul\":417:539   */\n      pop\n      jump\t// out\n        /* \"#utility.yul\":545:684   */\n    tag_128:\n        /* \"#utility.yul\":591:596   */\n      0x00\n        /* \"#utility.yul\":629:635   */\n      dup2\n        /* \"#utility.yul\":616:636   */\n      calldataload\n        /* \"#utility.yul\":607:636   */\n      swap1\n      pop\n        /* \"#utility.yul\":645:678   */\n      tag_179\n        /* \"#utility.yul\":672:677   */\n      dup2\n        /* \"#utility.yul\":645:678   */\n      tag_127\n      jump\t// in\n    tag_179:\n        /* \"#utility.yul\":545:684   */\n      swap3\n      swap2\n      pop\n      pop\n      jump\t// out\n        /* \"#utility.yul\":690:1019   */\n    tag_11:\n        /* \"#utility.yul\":749:755   */\n      0x00\n        /* \"#utility.yul\":798:800   */\n      0x20\n        /* \"#utility.yul\":786:795   */\n      dup3\n        /* \"#utility.yul\":777:784   */\n      dup5\n        /* \"#utility.yul\":773:796   */\n      sub\n        /* \"#utility.yul\":769:801   */\n      slt\n        /* \"#utility.yul\":766:885   */\n      iszero\n      tag_181\n      jumpi\n        /* \"#utility.yul\":804:883   */\n      tag_182\n      tag_124\n      jump\t// in\n    tag_182:\n        /* \"#utility.yul\":766:885   */\n    tag_181:\n        /* \"#utility.yul\":924:925   */\n      0x00\n        /* \"#utility.yul\":949:1002   */\n      tag_183\n        /* \"#utility.yul\":994:1001   */\n      dup5\n        /* \"#utility.yul\":985:991   */\n      dup3\n        /* \"#utility.yul\":974:983   */\n      dup6\n        /* \"#utility.yul\":970:992   */\n      add\n        /* \"#utility.yul\":949:1002   */\n      tag_128\n      jump\t// in\n    tag_183:\n        /* \"#utility.yul\":939:1002   */\n      swap2\n      pop\n        /* \"#utility.yul\":895:1012   */\n      pop\n        /* \"#utility.yul\":690:1019   */\n      swap3\n      swap2\n      pop\n      pop\n      jump\t// out\n        /* \"#utility.yul\":1025:1124   */\n    tag_129:\n        /* \"#utility.yul\":1077:1083   */\n      0x00\n        /* \"#utility.yul\":1111:1116   */\n      dup2\n        /* \"#utility.yul\":1105:1117   */\n      mload\n        /* \"#utility.yul\":1095:1117   */\n      swap1\n      pop\n        /* \"#utility.yul\":1025:1124   */\n      swap2\n      swap1\n      pop\n      jump\t// out\n        /* \"#utility.yul\":1130:1299   */\n    tag_130:\n        /* \"#utility.yul\":1214:1225   */\n      0x00\n        /* \"#utility.yul\":1248:1254   */\n      dup3\n        /* \"#utility.yul\":1243:1246   */\n      dup3\n        /* \"#utility.yul\":1236:1255   */\n      mstore\n        /* \"#utility.yul\":1288:1292   */\n      0x20\n        /* \"#utility.yul\":1283:1286   */\n      dup3\n        /* \"#utility.yul\":1279:1293   */\n      add\n        /* \"#utility.yul\":1264:1293   */\n      swap1\n      pop\n        /* \"#utility.yul\":1130:1299   */\n      swap3\n      swap2\n      pop\n      pop\n      jump\t// out\n        /* \"#utility.yul\":1305:1444   */\n    tag_131:\n        /* \"#utility.yul\":1394:1400   */\n      dup3\n        /* \"#utility.yul\":1389:1392   */\n      dup2\n        /* \"#utility.yul\":1384:1387   */\n      dup4\n        /* \"#utility.yul\":1378:1401   */\n      mcopy\n        /* \"#utility.yul\":1435:1436   */\n      0x00\n        /* \"#utility.yul\":1426:1432   */\n      dup4\n        /* \"#utility.yul\":1421:1424   */\n      dup4\n        /* \"#utility.yul\":1417:1433   */\n      add\n        /* \"#utility.yul\":1410:1437   */\n      mstore\n        /* \"#utility.yul\":1305:1444   */\n      pop\n      pop\n      pop\n      jump\t// out\n        /* \"#utility.yul\":1450:1552   */\n    tag_132:\n        /* \"#utility.yul\":1491:1497   */\n      0x00\n        /* \"#utility.yul\":1542:1544   */\n      0x1f\n        /* \"#utility.yul\":1538:1545   */\n      not\n        /* \"#utility.yul\":1533:1535   */\n      0x1f\n        /* \"#utility.yul\":1526:1531   */\n      dup4\n        /* \"#utility.yul\":1522:1536   */\n      add\n        /* \"#utility.yul\":1518:1546   */\n      and\n        /* \"#utility.yul\":1508:1546   */\n      swap1\n      pop\n        /* \"#utility.yul\":1450:1552   */\n      swap2\n      swap1\n      pop\n      jump\t// out\n        /* \"#utility.yul\":1558:1935   */\n    tag_133:\n        /* \"#utility.yul\":1646:1649   */\n      0x00\n        /* \"#utility.yul\":1674:1713   */\n      tag_189\n        /* \"#utility.yul\":1707:1712   */\n      dup3\n        /* \"#utility.yul\":1674:1713   */\n      tag_129\n      jump\t// in\n    tag_189:\n        /* \"#utility.yul\":1729:1800   */\n      tag_190\n        /* \"#utility.yul\":1793:1799   */\n      dup2\n        /* \"#utility.yul\":1788:1791   */\n      dup6\n        /* \"#utility.yul\":1729:1800   */\n      tag_130\n      jump\t// in\n    tag_190:\n        /* \"#utility.yul\":1722:1800   */\n      swap4\n      pop\n        /* \"#utility.yul\":1809:1874   */\n      tag_191\n        /* \"#utility.yul\":1867:1873   */\n      dup2\n        /* \"#utility.yul\":1862:1865   */\n      dup6\n        /* \"#utility.yul\":1855:1859   */\n      0x20\n        /* \"#utility.yul\":1848:1853   */\n      dup7\n        /* \"#utility.yul\":1844:1860   */\n      add\n        /* \"#utility.yul\":1809:1874   */\n      tag_131\n      jump\t// in\n    tag_191:\n        /* \"#utility.yul\":1899:1928   */\n      tag_192\n        /* \"#utility.yul\":1921:1927   */\n      dup2\n        /* \"#utility.yul\":1899:1928   */\n      tag_132\n      jump\t// in\n    tag_192:\n        /* \"#utility.yul\":1894:1897   */\n      dup5\n        /* \"#utility.yul\":1890:1929   */\n      add\n        /* \"#utility.yul\":1883:1929   */\n      swap2\n      pop\n        /* \"#utility.yul\":1650:1935   */\n      pop\n        /* \"#utility.yul\":1558:1935   */\n      swap3\n      swap2\n      pop\n      pop\n      jump\t// out\n        /* \"#utility.yul\":1941:2059   */\n    tag_134:\n        /* \"#utility.yul\":2028:2052   */\n      tag_194\n        /* \"#utility.yul\":2046:2051   */\n      dup2\n        /* \"#utility.yul\":2028:2052   */\n      tag_126\n      jump\t// in\n    tag_194:\n        /* \"#utility.yul\":2023:2026   */\n      dup3\n        /* \"#utility.yul\":2016:2053   */\n      mstore\n        /* \"#utility.yul\":1941:2059   */\n      pop\n      pop\n      jump\t// out\n        /* \"#utility.yul\":2065:2689   */\n    tag_14:\n        /* \"#utility.yul\":2254:2258   */\n      0x00\n        /* \"#utility.yul\":2292:2294   */\n      0x60\n        /* \"#utility.yul\":2281:2290   */\n      dup3\n        /* \"#utility.yul\":2277:2295   */\n      add\n        /* \"#utility.yul\":2269:2295   */\n      swap1\n      pop\n        /* \"#utility.yul\":2341:2350   */\n      dup2\n        /* \"#utility.yul\":2335:2339   */\n      dup2\n        /* \"#utility.yul\":2331:2351   */\n      sub\n        /* \"#utility.yul\":2327:2328   */\n      0x00\n        /* \"#utility.yul\":2316:2325   */\n      dup4\n        /* \"#utility.yul\":2312:2329   */\n      add\n        /* \"#utility.yul\":2305:2352   */\n      mstore\n        /* \"#utility.yul\":2369:2447   */\n      tag_196\n        /* \"#utility.yul\":2442:2446   */\n      dup2\n        /* \"#utility.yul\":2433:2439   */\n      dup7\n        /* \"#utility.yul\":2369:2447   */\n      tag_133\n      jump\t// in\n    tag_196:\n        /* \"#utility.yul\":2361:2447   */\n      swap1\n      pop\n        /* \"#utility.yul\":2494:2503   */\n      dup2\n        /* \"#utility.yul\":2488:2492   */\n      dup2\n        /* \"#utility.yul\":2484:2504   */\n      sub\n        /* \"#utility.yul\":2479:2481   */\n      0x20\n        /* \"#utility.yul\":2468:2477   */\n      dup4\n        /* \"#utility.yul\":2464:2482   */\n      add\n        /* \"#utility.yul\":2457:2505   */\n      mstore\n        /* \"#utility.yul\":2522:2600   */\n      tag_197\n        /* \"#utility.yul\":2595:2599   */\n      dup2\n        /* \"#utility.yul\":2586:2592   */\n      dup6\n        /* \"#utility.yul\":2522:2600   */\n      tag_133\n      jump\t// in\n    tag_197:\n        /* \"#utility.yul\":2514:2600   */\n      swap1\n      pop\n        /* \"#utility.yul\":2610:2682   */\n      tag_198\n        /* \"#utility.yul\":2678:2680   */\n      0x40\n        /* \"#utility.yul\":2667:2676   */\n      dup4\n        /* \"#utility.yul\":2663:2681   */\n      add\n        /* \"#utility.yul\":2654:2660   */\n      dup5\n        /* \"#utility.yul\":2610:2682   */\n      tag_134\n      jump\t// in\n    tag_198:\n        /* \"#utility.yul\":2065:2689   */\n      swap5\n      swap4\n      pop\n      pop\n      pop\n      pop\n      jump\t// out\n        /* \"#utility.yul\":2695:2812   */\n    tag_135:\n        /* \"#utility.yul\":2804:2805   */\n      0x00\n        /* \"#utility.yul\":2801:2802   */\n      dup1\n        /* \"#utility.yul\":2794:2806   */\n      revert\n        /* \"#utility.yul\":2818:2935   */\n    tag_136:\n        /* \"#utility.yul\":2927:2928   */\n      0x00\n        /* \"#utility.yul\":2924:2925   */\n      dup1\n        /* \"#utility.yul\":2917:2929   */\n      revert\n        /* \"#utility.yul\":2941:3121   */\n    tag_137:\n        /* \"#utility.yul\":2989:3066   */\n      0x4e487b7100000000000000000000000000000000000000000000000000000000\n        /* \"#utility.yul\":2986:2987   */\n      0x00\n        /* \"#utility.yul\":2979:3067   */\n      mstore\n        /* \"#utility.yul\":3086:3090   */\n      0x41\n        /* \"#utility.yul\":3083:3084   */\n      0x04\n        /* \"#utility.yul\":3076:3091   */\n      mstore\n        /* \"#utility.yul\":3110:3114   */\n      0x24\n        /* \"#utility.yul\":3107:3108   */\n      0x00\n        /* \"#utility.yul\":3100:3115   */\n      revert\n        /* \"#utility.yul\":3127:3408   */\n    tag_138:\n        /* \"#utility.yul\":3210:3237   */\n      tag_203\n        /* \"#utility.yul\":3232:3236   */\n      dup3\n        /* \"#utility.yul\":3210:3237   */\n      tag_132\n      jump\t// in\n    tag_203:\n        /* \"#utility.yul\":3202:3208   */\n      dup2\n        /* \"#utility.yul\":3198:3238   */\n      add\n        /* \"#utility.yul\":3340:3346   */\n      dup2\n        /* \"#utility.yul\":3328:3338   */\n      dup2\n        /* \"#utility.yul\":3325:3347   */\n      lt\n        /* \"#utility.yul\":3304:3322   */\n      0xffffffffffffffff\n        /* \"#utility.yul\":3292:3302   */\n      dup3\n        /* \"#utility.yul\":3289:3323   */\n      gt\n        /* \"#utility.yul\":3286:3348   */\n      or\n        /* \"#utility.yul\":3283:3371   */\n      iszero\n      tag_204\n      jumpi\n        /* \"#utility.yul\":3351:3369   */\n      tag_205\n      tag_137\n      jump\t// in\n    tag_205:\n        /* \"#utility.yul\":3283:3371   */\n    tag_204:\n        /* \"#utility.yul\":3391:3401   */\n      dup1\n        /* \"#utility.yul\":3387:3389   */\n      0x40\n        /* \"#utility.yul\":3380:3402   */\n      mstore\n        /* \"#utility.yul\":3170:3408   */\n      pop\n        /* \"#utility.yul\":3127:3408   */\n      pop\n      pop\n      jump\t// out\n        /* \"#utility.yul\":3414:3543   */\n    tag_139:\n        /* \"#utility.yul\":3448:3454   */\n      0x00\n        /* \"#utility.yul\":3475:3495   */\n      tag_207\n      tag_123\n      jump\t// in\n    tag_207:\n        /* \"#utility.yul\":3465:3495   */\n      swap1\n      pop\n        /* \"#utility.yul\":3504:3537   */\n      tag_208\n        /* \"#utility.yul\":3532:3536   */\n      dup3\n        /* \"#utility.yul\":3524:3530   */\n      dup3\n        /* \"#utility.yul\":3504:3537   */\n      tag_138\n      jump\t// in\n    tag_208:\n        /* \"#utility.yul\":3414:3543   */\n      swap2\n      swap1\n      pop\n      jump\t// out\n        /* \"#utility.yul\":3549:3857   */\n    tag_140:\n        /* \"#utility.yul\":3611:3615   */\n      0x00\n        /* \"#utility.yul\":3701:3719   */\n      0xffffffffffffffff\n        /* \"#utility.yul\":3693:3699   */\n      dup3\n        /* \"#utility.yul\":3690:3720   */\n      gt\n        /* \"#utility.yul\":3687:3743   */\n      iszero\n      tag_210\n      jumpi\n        /* \"#utility.yul\":3723:3741   */\n      tag_211\n      tag_137\n      jump\t// in\n    tag_211:\n        /* \"#utility.yul\":3687:3743   */\n    tag_210:\n        /* \"#utility.yul\":3761:3790   */\n      tag_212\n        /* \"#utility.yul\":3783:3789   */\n      dup3\n        /* \"#utility.yul\":3761:3790   */\n      tag_132\n      jump\t// in\n    tag_212:\n        /* \"#utility.yul\":3753:3790   */\n      swap1\n      pop\n        /* \"#utility.yul\":3845:3849   */\n      0x20\n        /* \"#utility.yul\":3839:3843   */\n      dup2\n        /* \"#utility.yul\":3835:3850   */\n      add\n        /* \"#utility.yul\":3827:3850   */\n      swap1\n      pop\n        /* \"#utility.yul\":3549:3857   */\n      swap2\n      swap1\n      pop\n      jump\t// out\n        /* \"#utility.yul\":3863:4011   */\n    tag_141:\n        /* \"#utility.yul\":3961:3967   */\n      dup3\n        /* \"#utility.yul\":3956:3959   */\n      dup2\n        /* \"#utility.yul\":3951:3954   */\n      dup4\n        /* \"#utility.yul\":3938:3968   */\n      calldatacopy\n        /* \"#utility.yul\":4002:4003   */\n      0x00\n        /* \"#utility.yul\":3993:3999   */\n      dup4\n        /* \"#utility.yul\":3988:3991   */\n      dup4\n        /* \"#utility.yul\":3984:4000   */\n      add\n        /* \"#utility.yul\":3977:4004   */\n      mstore\n        /* \"#utility.yul\":3863:4011   */\n      pop\n      pop\n      pop\n      jump\t// out\n        /* \"#utility.yul\":4017:4442   */\n    tag_142:\n        /* \"#utility.yul\":4095:4100   */\n      0x00\n        /* \"#utility.yul\":4120:4186   */\n      tag_215\n        /* \"#utility.yul\":4136:4185   */\n      tag_216\n        /* \"#utility.yul\":4178:4184   */\n      dup5\n        /* \"#utility.yul\":4136:4185   */\n      tag_140\n      jump\t// in\n    tag_216:\n        /* \"#utility.yul\":4120:4186   */\n      tag_139\n      jump\t// in\n    tag_215:\n        /* \"#utility.yul\":4111:4186   */\n      swap1\n      pop\n        /* \"#utility.yul\":4209:4215   */\n      dup3\n        /* \"#utility.yul\":4202:4207   */\n      dup2\n        /* \"#utility.yul\":4195:4216   */\n      mstore\n        /* \"#utility.yul\":4247:4251   */\n      0x20\n        /* \"#utility.yul\":4240:4245   */\n      dup2\n        /* \"#utility.yul\":4236:4252   */\n      add\n        /* \"#utility.yul\":4285:4288   */\n      dup5\n        /* \"#utility.yul\":4276:4282   */\n      dup5\n        /* \"#utility.yul\":4271:4274   */\n      dup5\n        /* \"#utility.yul\":4267:4283   */\n      add\n        /* \"#utility.yul\":4264:4289   */\n      gt\n        /* \"#utility.yul\":4261:4373   */\n      iszero\n      tag_217\n      jumpi\n        /* \"#utility.yul\":4292:4371   */\n      tag_218\n      tag_136\n      jump\t// in\n    tag_218:\n        /* \"#utility.yul\":4261:4373   */\n    tag_217:\n        /* \"#utility.yul\":4382:4436   */\n      tag_219\n        /* \"#utility.yul\":4429:4435   */\n      dup5\n        /* \"#utility.yul\":4424:4427   */\n      dup3\n        /* \"#utility.yul\":4419:4422   */\n      dup6\n        /* \"#utility.yul\":4382:4436   */\n      tag_141\n      jump\t// in\n    tag_219:\n        /* \"#utility.yul\":4101:4442   */\n      pop\n        /* \"#utility.yul\":4017:4442   */\n      swap4\n      swap3\n      pop\n      pop\n      pop\n      jump\t// out\n        /* \"#utility.yul\":4462:4802   */\n    tag_143:\n        /* \"#utility.yul\":4518:4523   */\n      0x00\n        /* \"#utility.yul\":4567:4570   */\n      dup3\n        /* \"#utility.yul\":4560:4564   */\n      0x1f\n        /* \"#utility.yul\":4552:4558   */\n      dup4\n        /* \"#utility.yul\":4548:4565   */\n      add\n        /* \"#utility.yul\":4544:4571   */\n      slt\n        /* \"#utility.yul\":4534:4656   */\n      tag_221\n      jumpi\n        /* \"#utility.yul\":4575:4654   */\n      tag_222\n      tag_135\n      jump\t// in\n    tag_222:\n        /* \"#utility.yul\":4534:4656   */\n    tag_221:\n        /* \"#utility.yul\":4692:4698   */\n      dup2\n        /* \"#utility.yul\":4679:4699   */\n      calldataload\n        /* \"#utility.yul\":4717:4796   */\n      tag_223\n        /* \"#utility.yul\":4792:4795   */\n      dup5\n        /* \"#utility.yul\":4784:4790   */\n      dup3\n        /* \"#utility.yul\":4777:4781   */\n      0x20\n        /* \"#utility.yul\":4769:4775   */\n      dup7\n        /* \"#utility.yul\":4765:4782   */\n      add\n        /* \"#utility.yul\":4717:4796   */\n      tag_142\n      jump\t// in\n    tag_223:\n        /* \"#utility.yul\":4708:4796   */\n      swap2\n      pop\n        /* \"#utility.yul\":4524:4802   */\n      pop\n        /* \"#utility.yul\":4462:4802   */\n      swap3\n      swap2\n      pop\n      pop\n      jump\t// out\n        /* \"#utility.yul\":4808:5642   */\n    tag_17:\n        /* \"#utility.yul\":4896:4902   */\n      0x00\n        /* \"#utility.yul\":4904:4910   */\n      dup1\n        /* \"#utility.yul\":4953:4955   */\n      0x40\n        /* \"#utility.yul\":4941:4950   */\n      dup4\n        /* \"#utility.yul\":4932:4939   */\n      dup6\n        /* \"#utility.yul\":4928:4951   */\n      sub\n        /* \"#utility.yul\":4924:4956   */\n      slt\n        /* \"#utility.yul\":4921:5040   */\n      iszero\n      tag_225\n      jumpi\n        /* \"#utility.yul\":4959:5038   */\n      tag_226\n      tag_124\n      jump\t// in\n    tag_226:\n        /* \"#utility.yul\":4921:5040   */\n    tag_225:\n        /* \"#utility.yul\":5107:5108   */\n      0x00\n        /* \"#utility.yul\":5096:5105   */\n      dup4\n        /* \"#utility.yul\":5092:5109   */\n      add\n        /* \"#utility.yul\":5079:5110   */\n      calldataload\n        /* \"#utility.yul\":5137:5155   */\n      0xffffffffffffffff\n        /* \"#utility.yul\":5129:5135   */\n      dup2\n        /* \"#utility.yul\":5126:5156   */\n      gt\n        /* \"#utility.yul\":5123:5240   */\n      iszero\n      tag_227\n      jumpi\n        /* \"#utility.yul\":5159:5238   */\n      tag_228\n      tag_125\n      jump\t// in\n    tag_228:\n        /* \"#utility.yul\":5123:5240   */\n    tag_227:\n        /* \"#utility.yul\":5264:5327   */\n      tag_229\n        /* \"#utility.yul\":5319:5326   */\n      dup6\n        /* \"#utility.yul\":5310:5316   */\n      dup3\n        /* \"#utility.yul\":5299:5308   */\n      dup7\n        /* \"#utility.yul\":5295:5317   */\n      add\n        /* \"#utility.yul\":5264:5327   */\n      tag_143\n      jump\t// in\n    tag_229:\n        /* \"#utility.yul\":5254:5327   */\n      swap3\n      pop\n        /* \"#utility.yul\":5050:5337   */\n      pop\n        /* \"#utility.yul\":5404:5406   */\n      0x20\n        /* \"#utility.yul\":5393:5402   */\n      dup4\n        /* \"#utility.yul\":5389:5407   */\n      add\n        /* \"#utility.yul\":5376:5408   */\n      calldataload\n        /* \"#utility.yul\":5435:5453   */\n      0xffffffffffffffff\n        /* \"#utility.yul\":5427:5433   */\n      dup2\n        /* \"#utility.yul\":5424:5454   */\n      gt\n        /* \"#utility.yul\":5421:5538   */\n      iszero\n      tag_230\n      jumpi\n        /* \"#utility.yul\":5457:5536   */\n      tag_231\n      tag_125\n      jump\t// in\n    tag_231:\n        /* \"#utility.yul\":5421:5538   */\n    tag_230:\n        /* \"#utility.yul\":5562:5625   */\n      tag_232\n        /* \"#utility.yul\":5617:5624   */\n      dup6\n        /* \"#utility.yul\":5608:5614   */\n      dup3\n        /* \"#utility.yul\":5597:5606   */\n      dup7\n        /* \"#utility.yul\":5593:5615   */\n      add\n        /* \"#utility.yul\":5562:5625   */\n      tag_143\n      jump\t// in\n    tag_232:\n        /* \"#utility.yul\":5552:5625   */\n      swap2\n      pop\n        /* \"#utility.yul\":5347:5635   */\n      pop\n        /* \"#utility.yul\":4808:5642   */\n      swap3\n      pop\n      swap3\n      swap1\n      pop\n      jump\t// out\n        /* \"#utility.yul\":5648:5870   */\n    tag_20:\n        /* \"#utility.yul\":5741:5745   */\n      0x00\n        /* \"#utility.yul\":5779:5781   */\n      0x20\n        /* \"#utility.yul\":5768:5777   */\n      dup3\n        /* \"#utility.yul\":5764:5782   */\n      add\n        /* \"#utility.yul\":5756:5782   */\n      swap1\n      pop\n        /* \"#utility.yul\":5792:5863   */\n      tag_234\n        /* \"#utility.yul\":5860:5861   */\n      0x00\n        /* \"#utility.yul\":5849:5858   */\n      dup4\n        /* \"#utility.yul\":5845:5862   */\n      add\n        /* \"#utility.yul\":5836:5842   */\n      dup5\n        /* \"#utility.yul\":5792:5863   */\n      tag_134\n      jump\t// in\n    tag_234:\n        /* \"#utility.yul\":5648:5870   */\n      swap3\n      swap2\n      pop\n      pop\n      jump\t// out\n        /* \"#utility.yul\":5876:6855   */\n    tag_23:\n        /* \"#utility.yul\":5973:5979   */\n      0x00\n        /* \"#utility.yul\":5981:5987   */\n      dup1\n        /* \"#utility.yul\":5989:5995   */\n      0x00\n        /* \"#utility.yul\":6038:6040   */\n      0x60\n        /* \"#utility.yul\":6026:6035   */\n      dup5\n        /* \"#utility.yul\":6017:6024   */\n      dup7\n        /* \"#utility.yul\":6013:6036   */\n      sub\n        /* \"#utility.yul\":6009:6041   */\n      slt\n        /* \"#utility.yul\":6006:6125   */\n      iszero\n      tag_236\n      jumpi\n        /* \"#utility.yul\":6044:6123   */\n      tag_237\n      tag_124\n      jump\t// in\n    tag_237:\n        /* \"#utility.yul\":6006:6125   */\n    tag_236:\n        /* \"#utility.yul\":6192:6193   */\n      0x00\n        /* \"#utility.yul\":6181:6190   */\n      dup5\n        /* \"#utility.yul\":6177:6194   */\n      add\n        /* \"#utility.yul\":6164:6195   */\n      calldataload\n        /* \"#utility.yul\":6222:6240   */\n      0xffffffffffffffff\n        /* \"#utility.yul\":6214:6220   */\n      dup2\n        /* \"#utility.yul\":6211:6241   */\n      gt\n        /* \"#utility.yul\":6208:6325   */\n      iszero\n      tag_238\n      jumpi\n        /* \"#utility.yul\":6244:6323   */\n      tag_239\n      tag_125\n      jump\t// in\n    tag_239:\n        /* \"#utility.yul\":6208:6325   */\n    tag_238:\n        /* \"#utility.yul\":6349:6412   */\n      tag_240\n        /* \"#utility.yul\":6404:6411   */\n      dup7\n        /* \"#utility.yul\":6395:6401   */\n      dup3\n        /* \"#utility.yul\":6384:6393   */\n      dup8\n        /* \"#utility.yul\":6380:6402   */\n      add\n        /* \"#utility.yul\":6349:6412   */\n      tag_143\n      jump\t// in\n    tag_240:\n        /* \"#utility.yul\":6339:6412   */\n      swap4\n      pop\n        /* \"#utility.yul\":6135:6422   */\n      pop\n        /* \"#utility.yul\":6489:6491   */\n      0x20\n        /* \"#utility.yul\":6478:6487   */\n      dup5\n        /* \"#utility.yul\":6474:6492   */\n      add\n        /* \"#utility.yul\":6461:6493   */\n      calldataload\n        /* \"#utility.yul\":6520:6538   */\n      0xffffffffffffffff\n        /* \"#utility.yul\":6512:6518   */\n      dup2\n        /* \"#utility.yul\":6509:6539   */\n      gt\n        /* \"#utility.yul\":6506:6623   */\n      iszero\n      tag_241\n      jumpi\n        /* \"#utility.yul\":6542:6621   */\n      tag_242\n      tag_125\n      jump\t// in\n    tag_242:\n        /* \"#utility.yul\":6506:6623   */\n    tag_241:\n        /* \"#utility.yul\":6647:6710   */\n      tag_243\n        /* \"#utility.yul\":6702:6709   */\n      dup7\n        /* \"#utility.yul\":6693:6699   */\n      dup3\n        /* \"#utility.yul\":6682:6691   */\n      dup8\n        /* \"#utility.yul\":6678:6700   */\n      add\n        /* \"#utility.yul\":6647:6710   */\n      tag_143\n      jump\t// in\n    tag_243:\n        /* \"#utility.yul\":6637:6710   */\n      swap3\n      pop\n        /* \"#utility.yul\":6432:6720   */\n      pop\n        /* \"#utility.yul\":6759:6761   */\n      0x40\n        /* \"#utility.yul\":6785:6838   */\n      tag_244\n        /* \"#utility.yul\":6830:6837   */\n      dup7\n        /* \"#utility.yul\":6821:6827   */\n      dup3\n        /* \"#utility.yul\":6810:6819   */\n      dup8\n        /* \"#utility.yul\":6806:6828   */\n      add\n        /* \"#utility.yul\":6785:6838   */\n      tag_128\n      jump\t// in\n    tag_244:\n        /* \"#utility.yul\":6775:6838   */\n      swap2\n      pop\n        /* \"#utility.yul\":6730:6848   */\n      pop\n        /* \"#utility.yul\":5876:6855   */\n      swap3\n      pop\n      swap3\n      pop\n      swap3\n      jump\t// out\n        /* \"#utility.yul\":6861:6987   */\n    tag_144:\n        /* \"#utility.yul\":6898:6905   */\n      0x00\n        /* \"#utility.yul\":6938:6980   */\n      0xffffffffffffffffffffffffffffffffffffffff\n        /* \"#utility.yul\":6931:6936   */\n      dup3\n        /* \"#utility.yul\":6927:6981   */\n      and\n        /* \"#utility.yul\":6916:6981   */\n      swap1\n      pop\n        /* \"#utility.yul\":6861:6987   */\n      swap2\n      swap1\n      pop\n      jump\t// out\n        /* \"#utility.yul\":6993:7089   */\n    tag_145:\n        /* \"#utility.yul\":7030:7037   */\n      0x00\n        /* \"#utility.yul\":7059:7083   */\n      tag_247\n        /* \"#utility.yul\":7077:7082   */\n      dup3\n        /* \"#utility.yul\":7059:7083   */\n      tag_144\n      jump\t// in\n    tag_247:\n        /* \"#utility.yul\":7048:7083   */\n      swap1\n      pop\n        /* \"#utility.yul\":6993:7089   */\n      swap2\n      swap1\n      pop\n      jump\t// out\n        /* \"#utility.yul\":7095:7213   */\n    tag_146:\n        /* \"#utility.yul\":7182:7206   */\n      tag_249\n        /* \"#utility.yul\":7200:7205   */\n      dup2\n        /* \"#utility.yul\":7182:7206   */\n      tag_145\n      jump\t// in\n    tag_249:\n        /* \"#utility.yul\":7177:7180   */\n      dup3\n        /* \"#utility.yul\":7170:7207   */\n      mstore\n        /* \"#utility.yul\":7095:7213   */\n      pop\n      pop\n      jump\t// out\n        /* \"#utility.yul\":7219:7441   */\n    tag_28:\n        /* \"#utility.yul\":7312:7316   */\n      0x00\n        /* \"#utility.yul\":7350:7352   */\n      0x20\n        /* \"#utility.yul\":7339:7348   */\n      dup3\n        /* \"#utility.yul\":7335:7353   */\n      add\n        /* \"#utility.yul\":7327:7353   */\n      swap1\n      pop\n        /* \"#utility.yul\":7363:7434   */\n      tag_251\n        /* \"#utility.yul\":7431:7432   */\n      0x00\n        /* \"#utility.yul\":7420:7429   */\n      dup4\n        /* \"#utility.yul\":7416:7433   */\n      add\n        /* \"#utility.yul\":7407:7413   */\n      dup5\n        /* \"#utility.yul\":7363:7434   */\n      tag_146\n      jump\t// in\n    tag_251:\n        /* \"#utility.yul\":7219:7441   */\n      swap3\n      swap2\n      pop\n      pop\n      jump\t// out\n        /* \"#utility.yul\":7447:7956   */\n    tag_34:\n        /* \"#utility.yul\":7516:7522   */\n      0x00\n        /* \"#utility.yul\":7565:7567   */\n      0x20\n        /* \"#utility.yul\":7553:7562   */\n      dup3\n        /* \"#utility.yul\":7544:7551   */\n      dup5\n        /* \"#utility.yul\":7540:7563   */\n      sub\n        /* \"#utility.yul\":7536:7568   */\n      slt\n        /* \"#utility.yul\":7533:7652   */\n      iszero\n      tag_253\n      jumpi\n        /* \"#utility.yul\":7571:7650   */\n      tag_254\n      tag_124\n      jump\t// in\n    tag_254:\n        /* \"#utility.yul\":7533:7652   */\n    tag_253:\n        /* \"#utility.yul\":7719:7720   */\n      0x00\n        /* \"#utility.yul\":7708:7717   */\n      dup3\n        /* \"#utility.yul\":7704:7721   */\n      add\n        /* \"#utility.yul\":7691:7722   */\n      calldataload\n        /* \"#utility.yul\":7749:7767   */\n      0xffffffffffffffff\n        /* \"#utility.yul\":7741:7747   */\n      dup2\n        /* \"#utility.yul\":7738:7768   */\n      gt\n        /* \"#utility.yul\":7735:7852   */\n      iszero\n      tag_255\n      jumpi\n        /* \"#utility.yul\":7771:7850   */\n      tag_256\n      tag_125\n      jump\t// in\n    tag_256:\n        /* \"#utility.yul\":7735:7852   */\n    tag_255:\n        /* \"#utility.yul\":7876:7939   */\n      tag_257\n        /* \"#utility.yul\":7931:7938   */\n      dup5\n        /* \"#utility.yul\":7922:7928   */\n      dup3\n        /* \"#utility.yul\":7911:7920   */\n      dup6\n        /* \"#utility.yul\":7907:7929   */\n      add\n        /* \"#utility.yul\":7876:7939   */\n      tag_143\n      jump\t// in\n    tag_257:\n        /* \"#utility.yul\":7866:7939   */\n      swap2\n      pop\n        /* \"#utility.yul\":7662:7949   */\n      pop\n        /* \"#utility.yul\":7447:7956   */\n      swap3\n      swap2\n      pop\n      pop\n      jump\t// out\n        /* \"#utility.yul\":7962:8142   */\n    tag_147:\n        /* \"#utility.yul\":8010:8087   */\n      0x4e487b7100000000000000000000000000000000000000000000000000000000\n        /* \"#utility.yul\":8007:8008   */\n      0x00\n        /* \"#utility.yul\":8000:8088   */\n      mstore\n        /* \"#utility.yul\":8107:8111   */\n      0x22\n        /* \"#utility.yul\":8104:8105   */\n      0x04\n        /* \"#utility.yul\":8097:8112   */\n      mstore\n        /* \"#utility.yul\":8131:8135   */\n      0x24\n        /* \"#utility.yul\":8128:8129   */\n      0x00\n        /* \"#utility.yul\":8121:8136   */\n      revert\n        /* \"#utility.yul\":8148:8468   */\n    tag_40:\n        /* \"#utility.yul\":8192:8198   */\n      0x00\n        /* \"#utility.yul\":8229:8230   */\n      0x02\n        /* \"#utility.yul\":8223:8227   */\n      dup3\n        /* \"#utility.yul\":8219:8231   */\n      div\n        /* \"#utility.yul\":8209:8231   */\n      swap1\n      pop\n        /* \"#utility.yul\":8276:8277   */\n      0x01\n        /* \"#utility.yul\":8270:8274   */\n      dup3\n        /* \"#utility.yul\":8266:8278   */\n      and\n        /* \"#utility.yul\":8297:8315   */\n      dup1\n        /* \"#utility.yul\":8287:8368   */\n      tag_260\n      jumpi\n        /* \"#utility.yul\":8353:8357   */\n      0x7f\n        /* \"#utility.yul\":8345:8351   */\n      dup3\n        /* \"#utility.yul\":8341:8358   */\n      and\n        /* \"#utility.yul\":8331:8358   */\n      swap2\n      pop\n        /* \"#utility.yul\":8287:8368   */\n    tag_260:\n        /* \"#utility.yul\":8415:8417   */\n      0x20\n        /* \"#utility.yul\":8407:8413   */\n      dup3\n        /* \"#utility.yul\":8404:8418   */\n      lt\n        /* \"#utility.yul\":8384:8402   */\n      dup2\n        /* \"#utility.yul\":8381:8419   */\n      sub\n        /* \"#utility.yul\":8378:8462   */\n      tag_261\n      jumpi\n        /* \"#utility.yul\":8434:8452   */\n      tag_262\n      tag_147\n      jump\t// in\n    tag_262:\n        /* \"#utility.yul\":8378:8462   */\n    tag_261:\n        /* \"#utility.yul\":8199:8468   */\n      pop\n        /* \"#utility.yul\":8148:8468   */\n      swap2\n      swap1\n      pop\n      jump\t// out\n        /* \"#utility.yul\":8474:8622   */\n    tag_148:\n        /* \"#utility.yul\":8576:8587   */\n      0x00\n        /* \"#utility.yul\":8613:8616   */\n      dup2\n        /* \"#utility.yul\":8598:8616   */\n      swap1\n      pop\n        /* \"#utility.yul\":8474:8622   */\n      swap3\n      swap2\n      pop\n      pop\n      jump\t// out\n        /* \"#utility.yul\":8628:9018   */\n    tag_149:\n        /* \"#utility.yul\":8734:8737   */\n      0x00\n        /* \"#utility.yul\":8762:8801   */\n      tag_265\n        /* \"#utility.yul\":8795:8800   */\n      dup3\n        /* \"#utility.yul\":8762:8801   */\n      tag_129\n      jump\t// in\n    tag_265:\n        /* \"#utility.yul\":8817:8906   */\n      tag_266\n        /* \"#utility.yul\":8899:8905   */\n      dup2\n        /* \"#utility.yul\":8894:8897   */\n      dup6\n        /* \"#utility.yul\":8817:8906   */\n      tag_148\n      jump\t// in\n    tag_266:\n        /* \"#utility.yul\":8810:8906   */\n      swap4\n      pop\n        /* \"#utility.yul\":8915:8980   */\n      tag_267\n        /* \"#utility.yul\":8973:8979   */\n      dup2\n        /* \"#utility.yul\":8968:8971   */\n      dup6\n        /* \"#utility.yul\":8961:8965   */\n      0x20\n        /* \"#utility.yul\":8954:8959   */\n      dup7\n        /* \"#utility.yul\":8950:8966   */\n      add\n        /* \"#utility.yul\":8915:8980   */\n      tag_131\n      jump\t// in\n    tag_267:\n        /* \"#utility.yul\":9005:9011   */\n      dup1\n        /* \"#utility.yul\":9000:9003   */\n      dup5\n        /* \"#utility.yul\":8996:9012   */\n      add\n        /* \"#utility.yul\":8989:9012   */\n      swap2\n      pop\n        /* \"#utility.yul\":8738:9018   */\n      pop\n        /* \"#utility.yul\":8628:9018   */\n      swap3\n      swap2\n      pop\n      pop\n      jump\t// out\n        /* \"#utility.yul\":9024:9299   */\n    tag_55:\n        /* \"#utility.yul\":9156:9159   */\n      0x00\n        /* \"#utility.yul\":9178:9273   */\n      tag_269\n        /* \"#utility.yul\":9269:9272   */\n      dup3\n        /* \"#utility.yul\":9260:9266   */\n      dup5\n        /* \"#utility.yul\":9178:9273   */\n      tag_149\n      jump\t// in\n    tag_269:\n        /* \"#utility.yul\":9171:9273   */\n      swap2\n      pop\n        /* \"#utility.yul\":9290:9293   */\n      dup2\n        /* \"#utility.yul\":9283:9293   */\n      swap1\n      pop\n        /* \"#utility.yul\":9024:9299   */\n      swap3\n      swap2\n      pop\n      pop\n      jump\t// out\n        /* \"#utility.yul\":9305:9485   */\n    tag_58:\n        /* \"#utility.yul\":9353:9430   */\n      0x4e487b7100000000000000000000000000000000000000000000000000000000\n        /* \"#utility.yul\":9350:9351   */\n      0x00\n        /* \"#utility.yul\":9343:9431   */\n      mstore\n        /* \"#utility.yul\":9450:9454   */\n      0x32\n        /* \"#utility.yul\":9447:9448   */\n      0x04\n        /* \"#utility.yul\":9440:9455   */\n      mstore\n        /* \"#utility.yul\":9474:9478   */\n      0x24\n        /* \"#utility.yul\":9471:9472   */\n      0x00\n        /* \"#utility.yul\":9464:9479   */\n      revert\n        /* \"#utility.yul\":9491:9632   */\n    tag_150:\n        /* \"#utility.yul\":9540:9544   */\n      0x00\n        /* \"#utility.yul\":9563:9566   */\n      dup2\n        /* \"#utility.yul\":9555:9566   */\n      swap1\n      pop\n        /* \"#utility.yul\":9586:9589   */\n      dup2\n        /* \"#utility.yul\":9583:9584   */\n      0x00\n        /* \"#utility.yul\":9576:9590   */\n      mstore\n        /* \"#utility.yul\":9620:9624   */\n      0x20\n        /* \"#utility.yul\":9617:9618   */\n      0x00\n        /* \"#utility.yul\":9607:9625   */\n      keccak256\n        /* \"#utility.yul\":9599:9625   */\n      swap1\n      pop\n        /* \"#utility.yul\":9491:9632   */\n      swap2\n      swap1\n      pop\n      jump\t// out\n        /* \"#utility.yul\":9662:10536   */\n    tag_151:\n        /* \"#utility.yul\":9765:9768   */\n      0x00\n        /* \"#utility.yul\":9802:9807   */\n      dup2\n        /* \"#utility.yul\":9796:9808   */\n      sload\n        /* \"#utility.yul\":9831:9867   */\n      tag_273\n        /* \"#utility.yul\":9857:9866   */\n      dup2\n        /* \"#utility.yul\":9831:9867   */\n      tag_40\n      jump\t// in\n    tag_273:\n        /* \"#utility.yul\":9883:9972   */\n      tag_274\n        /* \"#utility.yul\":9965:9971   */\n      dup2\n        /* \"#utility.yul\":9960:9963   */\n      dup7\n        /* \"#utility.yul\":9883:9972   */\n      tag_148\n      jump\t// in\n    tag_274:\n        /* \"#utility.yul\":9876:9972   */\n      swap5\n      pop\n        /* \"#utility.yul\":10003:10004   */\n      0x01\n        /* \"#utility.yul\":9992:10001   */\n      dup3\n        /* \"#utility.yul\":9988:10005   */\n      and\n        /* \"#utility.yul\":10019:10020   */\n      0x00\n        /* \"#utility.yul\":10014:10180   */\n      dup2\n      eq\n      tag_276\n      jumpi\n        /* \"#utility.yul\":10194:10195   */\n      0x01\n        /* \"#utility.yul\":10189:10530   */\n      dup2\n      eq\n      tag_277\n      jumpi\n        /* \"#utility.yul\":9981:10530   */\n      jump(tag_275)\n        /* \"#utility.yul\":10014:10180   */\n    tag_276:\n        /* \"#utility.yul\":10098:10102   */\n      0xff\n        /* \"#utility.yul\":10094:10103   */\n      not\n        /* \"#utility.yul\":10083:10092   */\n      dup4\n        /* \"#utility.yul\":10079:10104   */\n      and\n        /* \"#utility.yul\":10074:10077   */\n      dup7\n        /* \"#utility.yul\":10067:10105   */\n      mstore\n        /* \"#utility.yul\":10160:10166   */\n      dup2\n        /* \"#utility.yul\":10153:10167   */\n      iszero\n        /* \"#utility.yul\":10146:10168   */\n      iszero\n        /* \"#utility.yul\":10138:10144   */\n      dup3\n        /* \"#utility.yul\":10134:10169   */\n      mul\n        /* \"#utility.yul\":10129:10132   */\n      dup7\n        /* \"#utility.yul\":10125:10170   */\n      add\n        /* \"#utility.yul\":10118:10170   */\n      swap4\n      pop\n        /* \"#utility.yul\":10014:10180   */\n      jump(tag_275)\n        /* \"#utility.yul\":10189:10530   */\n    tag_277:\n        /* \"#utility.yul\":10256:10294   */\n      tag_278\n        /* \"#utility.yul\":10288:10293   */\n      dup6\n        /* \"#utility.yul\":10256:10294   */\n      tag_150\n      jump\t// in\n    tag_278:\n        /* \"#utility.yul\":10316:10317   */\n      0x00\n        /* \"#utility.yul\":10330:10484   */\n    tag_279:\n        /* \"#utility.yul\":10344:10350   */\n      dup4\n        /* \"#utility.yul\":10341:10342   */\n      dup2\n        /* \"#utility.yul\":10338:10351   */\n      lt\n        /* \"#utility.yul\":10330:10484   */\n      iszero\n      tag_281\n      jumpi\n        /* \"#utility.yul\":10418:10425   */\n      dup2\n        /* \"#utility.yul\":10412:10426   */\n      sload\n        /* \"#utility.yul\":10408:10409   */\n      dup2\n        /* \"#utility.yul\":10403:10406   */\n      dup10\n        /* \"#utility.yul\":10399:10410   */\n      add\n        /* \"#utility.yul\":10392:10427   */\n      mstore\n        /* \"#utility.yul\":10468:10469   */\n      0x01\n        /* \"#utility.yul\":10459:10466   */\n      dup3\n        /* \"#utility.yul\":10455:10470   */\n      add\n        /* \"#utility.yul\":10444:10470   */\n      swap2\n      pop\n        /* \"#utility.yul\":10366:10370   */\n      0x20\n        /* \"#utility.yul\":10363:10364   */\n      dup2\n        /* \"#utility.yul\":10359:10371   */\n      add\n        /* \"#utility.yul\":10354:10371   */\n      swap1\n      pop\n        /* \"#utility.yul\":10330:10484   */\n      jump(tag_279)\n    tag_281:\n        /* \"#utility.yul\":10513:10519   */\n      dup4\n        /* \"#utility.yul\":10508:10511   */\n      dup9\n        /* \"#utility.yul\":10504:10520   */\n      add\n        /* \"#utility.yul\":10497:10520   */\n      swap6\n      pop\n        /* \"#utility.yul\":10196:10530   */\n      pop\n      pop\n        /* \"#utility.yul\":9981:10530   */\n    tag_275:\n      pop\n        /* \"#utility.yul\":9769:10536   */\n      pop\n      pop\n        /* \"#utility.yul\":9662:10536   */\n      swap3\n      swap2\n      pop\n      pop\n      jump\t// out\n        /* \"#utility.yul\":10542:10811   */\n    tag_61:\n        /* \"#utility.yul\":10671:10674   */\n      0x00\n        /* \"#utility.yul\":10693:10785   */\n      tag_283\n        /* \"#utility.yul\":10781:10784   */\n      dup3\n        /* \"#utility.yul\":10772:10778   */\n      dup5\n        /* \"#utility.yul\":10693:10785   */\n      tag_151\n      jump\t// in\n    tag_283:\n        /* \"#utility.yul\":10686:10785   */\n      swap2\n      pop\n        /* \"#utility.yul\":10802:10805   */\n      dup2\n        /* \"#utility.yul\":10795:10805   */\n      swap1\n      pop\n        /* \"#utility.yul\":10542:10811   */\n      swap3\n      swap2\n      pop\n      pop\n      jump\t// out\n        /* \"#utility.yul\":10817:11042   */\n    tag_152:\n        /* \"#utility.yul\":10957:10991   */\n      0x4f6e6c7920746865206f776e65722063616e20706572666f726d207468697320\n        /* \"#utility.yul\":10953:10954   */\n      0x00\n        /* \"#utility.yul\":10945:10951   */\n      dup3\n        /* \"#utility.yul\":10941:10955   */\n      add\n        /* \"#utility.yul\":10934:10992   */\n      mstore\n        /* \"#utility.yul\":11026:11034   */\n      0x616374696f6e0000000000000000000000000000000000000000000000000000\n        /* \"#utility.yul\":11021:11023   */\n      0x20\n        /* \"#utility.yul\":11013:11019   */\n      dup3\n        /* \"#utility.yul\":11009:11024   */\n      add\n        /* \"#utility.yul\":11002:11035   */\n      mstore\n        /* \"#utility.yul\":10817:11042   */\n      pop\n      jump\t// out\n        /* \"#utility.yul\":11048:11414   */\n    tag_153:\n        /* \"#utility.yul\":11190:11193   */\n      0x00\n        /* \"#utility.yul\":11211:11278   */\n      tag_286\n        /* \"#utility.yul\":11275:11277   */\n      0x26\n        /* \"#utility.yul\":11270:11273   */\n      dup4\n        /* \"#utility.yul\":11211:11278   */\n      tag_130\n      jump\t// in\n    tag_286:\n        /* \"#utility.yul\":11204:11278   */\n      swap2\n      pop\n        /* \"#utility.yul\":11287:11380   */\n      tag_287\n        /* \"#utility.yul\":11376:11379   */\n      dup3\n        /* \"#utility.yul\":11287:11380   */\n      tag_152\n      jump\t// in\n    tag_287:\n        /* \"#utility.yul\":11405:11407   */\n      0x40\n        /* \"#utility.yul\":11400:11403   */\n      dup3\n        /* \"#utility.yul\":11396:11408   */\n      add\n        /* \"#utility.yul\":11389:11408   */\n      swap1\n      pop\n        /* \"#utility.yul\":11048:11414   */\n      swap2\n      swap1\n      pop\n      jump\t// out\n        /* \"#utility.yul\":11420:11839   */\n    tag_75:\n        /* \"#utility.yul\":11586:11590   */\n      0x00\n        /* \"#utility.yul\":11624:11626   */\n      0x20\n        /* \"#utility.yul\":11613:11622   */\n      dup3\n        /* \"#utility.yul\":11609:11627   */\n      add\n        /* \"#utility.yul\":11601:11627   */\n      swap1\n      pop\n        /* \"#utility.yul\":11673:11682   */\n      dup2\n        /* \"#utility.yul\":11667:11671   */\n      dup2\n        /* \"#utility.yul\":11663:11683   */\n      sub\n        /* \"#utility.yul\":11659:11660   */\n      0x00\n        /* \"#utility.yul\":11648:11657   */\n      dup4\n        /* \"#utility.yul\":11644:11661   */\n      add\n        /* \"#utility.yul\":11637:11684   */\n      mstore\n        /* \"#utility.yul\":11701:11832   */\n      tag_289\n        /* \"#utility.yul\":11827:11831   */\n      dup2\n        /* \"#utility.yul\":11701:11832   */\n      tag_153\n      jump\t// in\n    tag_289:\n        /* \"#utility.yul\":11693:11832   */\n      swap1\n      pop\n        /* \"#utility.yul\":11420:11839   */\n      swap2\n      swap1\n      pop\n      jump\t// out\n        /* \"#utility.yul\":11845:11938   */\n    tag_154:\n        /* \"#utility.yul\":11882:11888   */\n      0x00\n        /* \"#utility.yul\":11929:11931   */\n      0x20\n        /* \"#utility.yul\":11924:11926   */\n      0x1f\n        /* \"#utility.yul\":11917:11922   */\n      dup4\n        /* \"#utility.yul\":11913:11927   */\n      add\n        /* \"#utility.yul\":11909:11932   */\n      div\n        /* \"#utility.yul\":11899:11932   */\n      swap1\n      pop\n        /* \"#utility.yul\":11845:11938   */\n      swap2\n      swap1\n      pop\n      jump\t// out\n        /* \"#utility.yul\":11944:12051   */\n    tag_155:\n        /* \"#utility.yul\":11988:11996   */\n      0x00\n        /* \"#utility.yul\":12038:12043   */\n      dup3\n        /* \"#utility.yul\":12032:12036   */\n      dup3\n        /* \"#utility.yul\":12028:12044   */\n      shl\n        /* \"#utility.yul\":12007:12044   */\n      swap1\n      pop\n        /* \"#utility.yul\":11944:12051   */\n      swap3\n      swap2\n      pop\n      pop\n      jump\t// out\n        /* \"#utility.yul\":12057:12450   */\n    tag_156:\n        /* \"#utility.yul\":12126:12132   */\n      0x00\n        /* \"#utility.yul\":12176:12177   */\n      0x08\n        /* \"#utility.yul\":12164:12174   */\n      dup4\n        /* \"#utility.yul\":12160:12178   */\n      mul\n        /* \"#utility.yul\":12199:12296   */\n      tag_293\n        /* \"#utility.yul\":12229:12295   */\n      0xffffffffffffffffffffffffffffffffffffffffffffffffffffffffffffffff\n        /* \"#utility.yul\":12218:12227   */\n      dup3\n        /* \"#utility.yul\":12199:12296   */\n      tag_155\n      jump\t// in\n    tag_293:\n        /* \"#utility.yul\":12317:12356   */\n      tag_294\n        /* \"#utility.yul\":12347:12355   */\n      dup7\n        /* \"#utility.yul\":12336:12345   */\n      dup4\n        /* \"#utility.yul\":12317:12356   */\n      tag_155\n      jump\t// in\n    tag_294:\n        /* \"#utility.yul\":12305:12356   */\n      swap6\n      pop\n        /* \"#utility.yul\":12389:12393   */\n      dup1\n        /* \"#utility.yul\":12385:12394   */\n      not\n        /* \"#utility.yul\":12378:12383   */\n      dup5\n        /* \"#utility.yul\":12374:12395   */\n      and\n        /* \"#utility.yul\":12365:12395   */\n      swap4\n      pop\n        /* \"#utility.yul\":12438:12442   */\n      dup1\n        /* \"#utility.yul\":12428:12436   */\n      dup7\n        /* \"#utility.yul\":12424:12443   */\n      and\n        /* \"#utility.yul\":12417:12422   */\n      dup5\n        /* \"#utility.yul\":12414:12444   */\n      or\n        /* \"#utility.yul\":12404:12444   */\n      swap3\n      pop\n        /* \"#utility.yul\":12133:12450   */\n      pop\n      pop\n        /* \"#utility.yul\":12057:12450   */\n      swap4\n      swap3\n      pop\n      pop\n      pop\n      jump\t// out\n        /* \"#utility.yul\":12456:12516   */\n    tag_157:\n        /* \"#utility.yul\":12484:12487   */\n      0x00\n        /* \"#utility.yul\":12505:12510   */\n      dup2\n        /* \"#utility.yul\":12498:12510   */\n      swap1\n      pop\n        /* \"#utility.yul\":12456:12516   */\n      swap2\n      swap1\n      pop\n      jump\t// out\n        /* \"#utility.yul\":12522:12664   */\n    tag_158:\n        /* \"#utility.yul\":12572:12581   */\n      0x00\n        /* \"#utility.yul\":12605:12658   */\n      tag_297\n        /* \"#utility.yul\":12623:12657   */\n      tag_298\n        /* \"#utility.yul\":12632:12656   */\n      tag_299\n        /* \"#utility.yul\":12650:12655   */\n      dup5\n        /* \"#utility.yul\":12632:12656   */\n      tag_126\n      jump\t// in\n    tag_299:\n        /* \"#utility.yul\":12623:12657   */\n      tag_157\n      jump\t// in\n    tag_298:\n        /* \"#utility.yul\":12605:12658   */\n      tag_126\n      jump\t// in\n    tag_297:\n        /* \"#utility.yul\":12592:12658   */\n      swap1\n      pop\n        /* \"#utility.yul\":12522:12664   */\n      swap2\n      swap1\n      pop\n      jump\t// out\n        /* \"#utility.yul\":12670:12745   */\n    tag_159:\n        /* \"#utility.yul\":12713:12716   */\n      0x00\n        /* \"#utility.yul\":12734:12739   */\n      dup2\n        /* \"#utility.yul\":12727:12739   */\n      swap1\n      pop\n        /* \"#utility.yul\":12670:12745   */\n      swap2\n      swap1\n      pop\n      jump\t// out\n        /* \"#utility.yul\":12751:13020   */\n    tag_160:\n        /* \"#utility.yul\":12861:12900   */\n      tag_302\n        /* \"#utility.yul\":12892:12899   */\n      dup4\n        /* \"#utility.yul\":12861:12900   */\n      tag_158\n      jump\t// in\n    tag_302:\n        /* \"#utility.yul\":12922:13013   */\n      tag_303\n        /* \"#utility.yul\":12971:13012   */\n      tag_304\n        /* \"#utility.yul\":12995:13011   */\n      dup3\n        /* \"#utility.yul\":12971:13012   */\n      tag_159\n      jump\t// in\n    tag_304:\n        /* \"#utility.yul\":12963:12969   */\n      dup5\n        /* \"#utility.yul\":12956:12960   */\n      dup5\n        /* \"#utility.yul\":12950:12961   */\n      sload\n        /* \"#utility.yul\":12922:13013   */\n      tag_156\n      jump\t// in\n    tag_303:\n        /* \"#utility.yul\":12916:12920   */\n      dup3\n        /* \"#utility.yul\":12909:13014   */\n      sstore\n        /* \"#utility.yul\":12827:13020   */\n      pop\n        /* \"#utility.yul\":12751:13020   */\n      pop\n      pop\n      pop\n      jump\t// out\n        /* \"#utility.yul\":13026:13099   */\n    tag_161:\n        /* \"#utility.yul\":13071:13074   */\n      0x00\n        /* \"#utility.yul\":13026:13099   */\n      swap1\n      jump\t// out\n        /* \"#utility.yul\":13105:13294   */\n    tag_162:\n        /* \"#utility.yul\":13182:13214   */\n      tag_307\n      tag_161\n      jump\t// in\n    tag_307:\n        /* \"#utility.yul\":13223:13288   */\n      tag_308\n        /* \"#utility.yul\":13281:13287   */\n      dup2\n        /* \"#utility.yul\":13273:13279   */\n      dup5\n        /* \"#utility.yul\":13267:13271   */\n      dup5\n        /* \"#utility.yul\":13223:13288   */\n      tag_160\n      jump\t// in\n    tag_308:\n        /* \"#utility.yul\":13158:13294   */\n      pop\n        /* \"#utility.yul\":13105:13294   */\n      pop\n      pop\n      jump\t// out\n        /* \"#utility.yul\":13300:13486   */\n    tag_163:\n        /* \"#utility.yul\":13360:13480   */\n    tag_310:\n        /* \"#utility.yul\":13377:13380   */\n      dup2\n        /* \"#utility.yul\":13370:13375   */\n      dup2\n        /* \"#utility.yul\":13367:13381   */\n      lt\n        /* \"#utility.yul\":13360:13480   */\n      iszero\n      tag_312\n      jumpi\n        /* \"#utility.yul\":13431:13470   */\n      tag_313\n        /* \"#utility.yul\":13468:13469   */\n      0x00\n        /* \"#utility.yul\":13461:13466   */\n      dup3\n        /* \"#utility.yul\":13431:13470   */\n      tag_162\n      jump\t// in\n    tag_313:\n        /* \"#utility.yul\":13404:13405   */\n      0x01\n        /* \"#utility.yul\":13397:13402   */\n      dup2\n        /* \"#utility.yul\":13393:13406   */\n      add\n        /* \"#utility.yul\":13384:13406   */\n      swap1\n      pop\n        /* \"#utility.yul\":13360:13480   */\n      jump(tag_310)\n    tag_312:\n        /* \"#utility.yul\":13300:13486   */\n      pop\n      pop\n      jump\t// out\n        /* \"#utility.yul\":13492:14035   */\n    tag_164:\n        /* \"#utility.yul\":13593:13595   */\n      0x1f\n        /* \"#utility.yul\":13588:13591   */\n      dup3\n        /* \"#utility.yul\":13585:13596   */\n      gt\n        /* \"#utility.yul\":13582:14028   */\n      iszero\n      tag_315\n      jumpi\n        /* \"#utility.yul\":13627:13665   */\n      tag_316\n        /* \"#utility.yul\":13659:13664   */\n      dup2\n        /* \"#utility.yul\":13627:13665   */\n      tag_150\n      jump\t// in\n    tag_316:\n        /* \"#utility.yul\":13711:13740   */\n      tag_317\n        /* \"#utility.yul\":13729:13739   */\n      dup5\n        /* \"#utility.yul\":13711:13740   */\n      tag_154\n      jump\t// in\n    tag_317:\n        /* \"#utility.yul\":13701:13709   */\n      dup2\n        /* \"#utility.yul\":13697:13741   */\n      add\n        /* \"#utility.yul\":13894:13896   */\n      0x20\n        /* \"#utility.yul\":13882:13892   */\n      dup6\n        /* \"#utility.yul\":13879:13897   */\n      lt\n        /* \"#utility.yul\":13876:13925   */\n      iszero\n      tag_318\n      jumpi\n        /* \"#utility.yul\":13915:13923   */\n      dup2\n        /* \"#utility.yul\":13900:13923   */\n      swap1\n      pop\n        /* \"#utility.yul\":13876:13925   */\n    tag_318:\n        /* \"#utility.yul\":13938:14018   */\n      tag_319\n        /* \"#utility.yul\":13994:14016   */\n      tag_320\n        /* \"#utility.yul\":14012:14015   */\n      dup6\n        /* \"#utility.yul\":13994:14016   */\n      tag_154\n      jump\t// in\n    tag_320:\n        /* \"#utility.yul\":13984:13992   */\n      dup4\n        /* \"#utility.yul\":13980:14017   */\n      add\n        /* \"#utility.yul\":13967:13978   */\n      dup3\n        /* \"#utility.yul\":13938:14018   */\n      tag_163\n      jump\t// in\n    tag_319:\n        /* \"#utility.yul\":13597:14028   */\n      pop\n      pop\n        /* \"#utility.yul\":13582:14028   */\n    tag_315:\n        /* \"#utility.yul\":13492:14035   */\n      pop\n      pop\n      pop\n      jump\t// out\n        /* \"#utility.yul\":14041:14158   */\n    tag_165:\n        /* \"#utility.yul\":14095:14103   */\n      0x00\n        /* \"#utility.yul\":14145:14150   */\n      dup3\n        /* \"#utility.yul\":14139:14143   */\n      dup3\n        /* \"#utility.yul\":14135:14151   */\n      shr\n        /* \"#utility.yul\":14114:14151   */\n      swap1\n      pop\n        /* \"#utility.yul\":14041:14158   */\n      swap3\n      swap2\n      pop\n      pop\n      jump\t// out\n        /* \"#utility.yul\":14164:14333   */\n    tag_166:\n        /* \"#utility.yul\":14208:14214   */\n      0x00\n        /* \"#utility.yul\":14241:14292   */\n      tag_323\n        /* \"#utility.yul\":14289:14290   */\n      0x00\n        /* \"#utility.yul\":14285:14291   */\n      not\n        /* \"#utility.yul\":14277:14282   */\n      dup5\n        /* \"#utility.yul\":14274:14275   */\n      0x08\n        /* \"#utility.yul\":14270:14283   */\n      mul\n        /* \"#utility.yul\":14241:14292   */\n      tag_165\n      jump\t// in\n    tag_323:\n        /* \"#utility.yul\":14237:14293   */\n      not\n        /* \"#utility.yul\":14322:14326   */\n      dup1\n        /* \"#utility.yul\":14316:14320   */\n      dup4\n        /* \"#utility.yul\":14312:14327   */\n      and\n        /* \"#utility.yul\":14302:14327   */\n      swap2\n      pop\n        /* \"#utility.yul\":14215:14333   */\n      pop\n        /* \"#utility.yul\":14164:14333   */\n      swap3\n      swap2\n      pop\n      pop\n      jump\t// out\n        /* \"#utility.yul\":14338:14633   */\n    tag_167:\n        /* \"#utility.yul\":14414:14418   */\n      0x00\n        /* \"#utility.yul\":14560:14589   */\n      tag_325\n        /* \"#utility.yul\":14585:14588   */\n      dup4\n        /* \"#utility.yul\":14579:14583   */\n      dup4\n        /* \"#utility.yul\":14560:14589   */\n      tag_166\n      jump\t// in\n    tag_325:\n        /* \"#utility.yul\":14552:14589   */\n      swap2\n      pop\n        /* \"#utility.yul\":14622:14625   */\n      dup3\n        /* \"#utility.yul\":14619:14620   */\n      0x02\n        /* \"#utility.yul\":14615:14626   */\n      mul\n        /* \"#utility.yul\":14609:14613   */\n      dup3\n        /* \"#utility.yul\":14606:14627   */\n      or\n        /* \"#utility.yul\":14598:14627   */\n      swap1\n      pop\n        /* \"#utility.yul\":14338:14633   */\n      swap3\n      swap2\n      pop\n      pop\n      jump\t// out\n        /* \"#utility.yul\":14638:16033   */\n    tag_101:\n        /* \"#utility.yul\":14755:14792   */\n      tag_327\n        /* \"#utility.yul\":14788:14791   */\n      dup3\n        /* \"#utility.yul\":14755:14792   */\n      tag_129\n      jump\t// in\n    tag_327:\n        /* \"#utility.yul\":14857:14875   */\n      0xffffffffffffffff\n        /* \"#utility.yul\":14849:14855   */\n      dup2\n        /* \"#utility.yul\":14846:14876   */\n      gt\n        /* \"#utility.yul\":14843:14899   */\n      iszero\n      tag_328\n      jumpi\n        /* \"#utility.yul\":14879:14897   */\n      tag_329\n      tag_137\n      jump\t// in\n    tag_329:\n        /* \"#utility.yul\":14843:14899   */\n    tag_328:\n        /* \"#utility.yul\":14923:14961   */\n      tag_330\n        /* \"#utility.yul\":14955:14959   */\n      dup3\n        /* \"#utility.yul\":14949:14960   */\n      sload\n        /* \"#utility.yul\":14923:14961   */\n      tag_40\n      jump\t// in\n    tag_330:\n        /* \"#utility.yul\":15008:15075   */\n      tag_331\n        /* \"#utility.yul\":15068:15074   */\n      dup3\n        /* \"#utility.yul\":15060:15066   */\n      dup3\n        /* \"#utility.yul\":15054:15058   */\n      dup6\n        /* \"#utility.yul\":15008:15075   */\n      tag_164\n      jump\t// in\n    tag_331:\n        /* \"#utility.yul\":15102:15103   */\n      0x00\n        /* \"#utility.yul\":15126:15130   */\n      0x20\n        /* \"#utility.yul\":15113:15130   */\n      swap1\n      pop\n        /* \"#utility.yul\":15158:15160   */\n      0x1f\n        /* \"#utility.yul\":15150:15156   */\n      dup4\n        /* \"#utility.yul\":15147:15161   */\n      gt\n        /* \"#utility.yul\":15175:15176   */\n      0x01\n        /* \"#utility.yul\":15170:15788   */\n      dup2\n      eq\n      tag_333\n      jumpi\n        /* \"#utility.yul\":15832:15833   */\n      0x00\n        /* \"#utility.yul\":15849:15855   */\n      dup5\n        /* \"#utility.yul\":15846:15923   */\n      iszero\n      tag_334\n      jumpi\n        /* \"#utility.yul\":15898:15907   */\n      dup3\n        /* \"#utility.yul\":15893:15896   */\n      dup8\n        /* \"#utility.yul\":15889:15908   */\n      add\n        /* \"#utility.yul\":15883:15909   */\n      mload\n        /* \"#utility.yul\":15874:15909   */\n      swap1\n      pop\n        /* \"#utility.yul\":15846:15923   */\n    tag_334:\n        /* \"#utility.yul\":15949:16016   */\n      tag_335\n        /* \"#utility.yul\":16009:16015   */\n      dup6\n        /* \"#utility.yul\":16002:16007   */\n      dup3\n        /* \"#utility.yul\":15949:16016   */\n      tag_167\n      jump\t// in\n    tag_335:\n        /* \"#utility.yul\":15943:15947   */\n      dup7\n        /* \"#utility.yul\":15936:16017   */\n      sstore\n        /* \"#utility.yul\":15805:16027   */\n      pop\n        /* \"#utility.yul\":15140:16027   */\n      jump(tag_332)\n        /* \"#utility.yul\":15170:15788   */\n    tag_333:\n        /* \"#utility.yul\":15222:15226   */\n      0x1f\n        /* \"#utility.yul\":15218:15227   */\n      not\n        /* \"#utility.yul\":15210:15216   */\n      dup5\n        /* \"#utility.yul\":15206:15228   */\n      and\n        /* \"#utility.yul\":15256:15293   */\n      tag_336\n        /* \"#utility.yul\":15288:15292   */\n      dup7\n        /* \"#utility.yul\":15256:15293   */\n      tag_150\n      jump\t// in\n    tag_336:\n        /* \"#utility.yul\":15315:15316   */\n      0x00\n        /* \"#utility.yul\":15329:15537   */\n    tag_337:\n        /* \"#utility.yul\":15343:15350   */\n      dup3\n        /* \"#utility.yul\":15340:15341   */\n      dup2\n        /* \"#utility.yul\":15337:15351   */\n      lt\n        /* \"#utility.yul\":15329:15537   */\n      iszero\n      tag_339\n      jumpi\n        /* \"#utility.yul\":15422:15431   */\n      dup5\n        /* \"#utility.yul\":15417:15420   */\n      dup10\n        /* \"#utility.yul\":15413:15432   */\n      add\n        /* \"#utility.yul\":15407:15433   */\n      mload\n        /* \"#utility.yul\":15399:15405   */\n      dup3\n        /* \"#utility.yul\":15392:15434   */\n      sstore\n        /* \"#utility.yul\":15473:15474   */\n      0x01\n        /* \"#utility.yul\":15465:15471   */\n      dup3\n        /* \"#utility.yul\":15461:15475   */\n      add\n        /* \"#utility.yul\":15451:15475   */\n      swap2\n      pop\n        /* \"#utility.yul\":15520:15522   */\n      0x20\n        /* \"#utility.yul\":15509:15518   */\n      dup6\n        /* \"#utility.yul\":15505:15523   */\n      add\n        /* \"#utility.yul\":15492:15523   */\n      swap5\n      pop\n        /* \"#utility.yul\":15366:15370   */\n      0x20\n        /* \"#utility.yul\":15363:15364   */\n      dup2\n        /* \"#utility.yul\":15359:15371   */\n      add\n        /* \"#utility.yul\":15354:15371   */\n      swap1\n      pop\n        /* \"#utility.yul\":15329:15537   */\n      jump(tag_337)\n    tag_339:\n        /* \"#utility.yul\":15565:15571   */\n      dup7\n        /* \"#utility.yul\":15556:15563   */\n      dup4\n        /* \"#utility.yul\":15553:15572   */\n      lt\n        /* \"#utility.yul\":15550:15729   */\n      iszero\n      tag_340\n      jumpi\n        /* \"#utility.yul\":15623:15632   */\n      dup5\n        /* \"#utility.yul\":15618:15621   */\n      dup10\n        /* \"#utility.yul\":15614:15633   */\n      add\n        /* \"#utility.yul\":15608:15634   */\n      mload\n        /* \"#utility.yul\":15666:15714   */\n      tag_341\n        /* \"#utility.yul\":15708:15712   */\n      0x1f\n        /* \"#utility.yul\":15700:15706   */\n      dup10\n        /* \"#utility.yul\":15696:15713   */\n      and\n        /* \"#utility.yul\":15685:15694   */\n      dup3\n        /* \"#utility.yul\":15666:15714   */\n      tag_166\n      jump\t// in\n    tag_341:\n        /* \"#utility.yul\":15658:15664   */\n      dup4\n        /* \"#utility.yul\":15651:15715   */\n      sstore\n        /* \"#utility.yul\":15573:15729   */\n      pop\n        /* \"#utility.yul\":15550:15729   */\n    tag_340:\n        /* \"#utility.yul\":15775:15776   */\n      0x01\n        /* \"#utility.yul\":15771:15772   */\n      0x02\n        /* \"#utility.yul\":15763:15769   */\n      dup9\n        /* \"#utility.yul\":15759:15773   */\n      mul\n        /* \"#utility.yul\":15755:15777   */\n      add\n        /* \"#utility.yul\":15749:15753   */\n      dup9\n        /* \"#utility.yul\":15742:15778   */\n      sstore\n        /* \"#utility.yul\":15177:15788   */\n      pop\n      pop\n      pop\n        /* \"#utility.yul\":15140:16027   */\n    tag_332:\n      pop\n        /* \"#utility.yul\":14730:16033   */\n      pop\n      pop\n      pop\n        /* \"#utility.yul\":14638:16033   */\n      pop\n      pop\n      jump\t// out\n        /* \"#utility.yul\":16039:16219   */\n    tag_168:\n        /* \"#utility.yul\":16087:16164   */\n      0x4e487b7100000000000000000000000000000000000000000000000000000000\n        /* \"#utility.yul\":16084:16085   */\n      0x00\n        /* \"#utility.yul\":16077:16165   */\n      mstore\n        /* \"#utility.yul\":16184:16188   */\n      0x11\n        /* \"#utility.yul\":16181:16182   */\n      0x04\n        /* \"#utility.yul\":16174:16189   */\n      mstore\n        /* \"#utility.yul\":16208:16212   */\n      0x24\n        /* \"#utility.yul\":16205:16206   */\n      0x00\n        /* \"#utility.yul\":16198:16213   */\n      revert\n        /* \"#utility.yul\":16225:16416   */\n    tag_117:\n        /* \"#utility.yul\":16265:16268   */\n      0x00\n        /* \"#utility.yul\":16284:16304   */\n      tag_344\n        /* \"#utility.yul\":16302:16303   */\n      dup3\n        /* \"#utility.yul\":16284:16304   */\n      tag_126\n      jump\t// in\n    tag_344:\n        /* \"#utility.yul\":16279:16304   */\n      swap2\n      pop\n        /* \"#utility.yul\":16318:16338   */\n      tag_345\n        /* \"#utility.yul\":16336:16337   */\n      dup4\n        /* \"#utility.yul\":16318:16338   */\n      tag_126\n      jump\t// in\n    tag_345:\n        /* \"#utility.yul\":16313:16338   */\n      swap3\n      pop\n        /* \"#utility.yul\":16361:16362   */\n      dup3\n        /* \"#utility.yul\":16358:16359   */\n      dup3\n        /* \"#utility.yul\":16354:16363   */\n      add\n        /* \"#utility.yul\":16347:16363   */\n      swap1\n      pop\n        /* \"#utility.yul\":16382:16385   */\n      dup1\n        /* \"#utility.yul\":16379:16380   */\n      dup3\n        /* \"#utility.yul\":16376:16386   */\n      gt\n        /* \"#utility.yul\":16373:16409   */\n      iszero\n      tag_346\n      jumpi\n        /* \"#utility.yul\":16389:16407   */\n      tag_347\n      tag_168\n      jump\t// in\n    tag_347:\n        /* \"#utility.yul\":16373:16409   */\n    tag_346:\n        /* \"#utility.yul\":16225:16416   */\n      swap3\n      swap2\n      pop\n      pop\n      jump\t// out\n        /* \"#utility.yul\":16422:16655   */\n    tag_119:\n        /* \"#utility.yul\":16461:16464   */\n      0x00\n        /* \"#utility.yul\":16484:16508   */\n      tag_349\n        /* \"#utility.yul\":16502:16507   */\n      dup3\n        /* \"#utility.yul\":16484:16508   */\n      tag_126\n      jump\t// in\n    tag_349:\n        /* \"#utility.yul\":16475:16508   */\n      swap2\n      pop\n        /* \"#utility.yul\":16530:16596   */\n      0xffffffffffffffffffffffffffffffffffffffffffffffffffffffffffffffff\n        /* \"#utility.yul\":16523:16528   */\n      dup3\n        /* \"#utility.yul\":16520:16597   */\n      sub\n        /* \"#utility.yul\":16517:16620   */\n      tag_350\n      jumpi\n        /* \"#utility.yul\":16600:16618   */\n      tag_351\n      tag_168\n      jump\t// in\n    tag_351:\n        /* \"#utility.yul\":16517:16620   */\n    tag_350:\n        /* \"#utility.yul\":16647:16648   */\n      0x01\n        /* \"#utility.yul\":16640:16645   */\n      dup3\n        /* \"#utility.yul\":16636:16649   */\n      add\n        /* \"#utility.yul\":16629:16649   */\n      swap1\n      pop\n        /* \"#utility.yul\":16422:16655   */\n      swap2\n      swap1\n      pop\n      jump\t// out\n        /* \"#utility.yul\":16661:16841   */\n    tag_169:\n        /* \"#utility.yul\":16709:16786   */\n      0x4e487b7100000000000000000000000000000000000000000000000000000000\n        /* \"#utility.yul\":16706:16707   */\n      0x00\n        /* \"#utility.yul\":16699:16787   */\n      mstore\n        /* \"#utility.yul\":16806:16810   */\n      0x12\n        /* \"#utility.yul\":16803:16804   */\n      0x04\n        /* \"#utility.yul\":16796:16811   */\n      mstore\n        /* \"#utility.yul\":16830:16834   */\n      0x24\n        /* \"#utility.yul\":16827:16828   */\n      0x00\n        /* \"#utility.yul\":16820:16835   */\n      revert\n        /* \"#utility.yul\":16847:17032   */\n    tag_122:\n        /* \"#utility.yul\":16887:16888   */\n      0x00\n        /* \"#utility.yul\":16904:16924   */\n      tag_354\n        /* \"#utility.yul\":16922:16923   */\n      dup3\n        /* \"#utility.yul\":16904:16924   */\n      tag_126\n      jump\t// in\n    tag_354:\n        /* \"#utility.yul\":16899:16924   */\n      swap2\n      pop\n        /* \"#utility.yul\":16938:16958   */\n      tag_355\n        /* \"#utility.yul\":16956:16957   */\n      dup4\n        /* \"#utility.yul\":16938:16958   */\n      tag_126\n      jump\t// in\n    tag_355:\n        /* \"#utility.yul\":16933:16958   */\n      swap3\n      pop\n        /* \"#utility.yul\":16977:16978   */\n      dup3\n        /* \"#utility.yul\":16967:17002   */\n      tag_356\n      jumpi\n        /* \"#utility.yul\":16982:17000   */\n      tag_357\n      tag_169\n      jump\t// in\n    tag_357:\n        /* \"#utility.yul\":16967:17002   */\n    tag_356:\n        /* \"#utility.yul\":17024:17025   */\n      dup3\n        /* \"#utility.yul\":17021:17022   */\n      dup3\n        /* \"#utility.yul\":17017:17026   */\n      div\n        /* \"#utility.yul\":17012:17026   */\n      swap1\n      pop\n        /* \"#utility.yul\":16847:17032   */\n      swap3\n      swap2\n      pop\n      pop\n      jump\t// out\n\n    auxdata: 0xa26469706673582212204d4bcf1b6377e7f6f23a39913c4cdb49230afed8e5d709ee26587f7ebcdafd7564736f6c634300081a0033\n}\n",
				"bytecode": {
					"linkReferences": {},
					"object": "6080604052348015600e575f80fd5b503360015f6101000a81548173ffffffffffffffffffffffffffffffffffffffff021916908373ffffffffffffffffffffffffffffffffffffffff16021790555061117e8061005c5f395ff3fe608060405234801561000f575f80fd5b5060043610610060575f3560e01c80634b22fc62146100645780634cae0eb41461009657806386d57c08146100c65780638da5cb5b146100e2578063a8ea621214610100578063ee43deb71461011c575b5f80fd5b61007e6004803603810190610079919061080b565b61014c565b60405161008d939291906108b5565b60405180910390f35b6100b060048036038101906100ab9190610a24565b61028c565b6040516100bd9190610a9a565b60405180910390f35b6100e060048036038101906100db9190610ab3565b6103cd565b005b6100ea610595565b6040516100f79190610b7a565b60405180910390f35b61011a60048036038101906101159190610ab3565b6105ba565b005b61013660048036038101906101319190610b93565b6106cb565b6040516101439190610a9a565b60405180910390f35b5f818154811061015a575f80fd5b905f5260205f2090600302015f91509050805f01805461017990610c07565b80601f01602080910402602001604051908101604052809291908181526020018280546101a590610c07565b80156101f05780601f106101c7576101008083540402835291602001916101f0565b820191905f5260205f20905b8154815290600101906020018083116101d357829003601f168201915b50505050509080600101805461020590610c07565b80601f016020809104026020016040519081016040528092919081815260200182805461023190610c07565b801561027c5780601f106102535761010080835404028352916020019161027c565b820191905f5260205f20905b81548152906001019060200180831161025f57829003601f168201915b5050505050908060020154905083565b5f805f90505b5f805490508110156103c257836040516020016102af9190610c71565b604051602081830303815290604052805190602001205f82815481106102d8576102d7610c87565b5b905f5260205f2090600302015f016040516020016102f69190610d46565b604051602081830303815290604052805190602001201480156103855750826040516020016103259190610c71565b604051602081830303815290604052805190602001205f828154811061034e5761034d610c87565b5b905f5260205f20906003020160010160405160200161036d9190610d46565b60405160208183030381529060405280519060200120145b156103b5575f818154811061039d5761039c610c87565b5b905f5260205f209060030201600201549150506103c7565b8080600101915050610292565b505f90505b92915050565b60015f9054906101000a900473ffffffffffffffffffffffffffffffffffffffff1673ffffffffffffffffffffffffffffffffffffffff163373ffffffffffffffffffffffffffffffffffffffff161461045c576040517f08c379a000000000000000000000000000000000000000000000000000000000815260040161045390610dcc565b60405180910390fd5b5f5b5f8054905081101561058f578360405160200161047b9190610c71565b604051602081830303815290604052805190602001205f82815481106104a4576104a3610c87565b5b905f5260205f2090600302015f016040516020016104c29190610d46565b604051602081830303815290604052805190602001201480156105515750826040516020016104f19190610c71565b604051602081830303815290604052805190602001205f828154811061051a57610519610c87565b5b905f5260205f2090600302016001016040516020016105399190610d46565b60405160208183030381529060405280519060200120145b1561058257815f828154811061056a57610569610c87565b5b905f5260205f2090600302016002018190555061058f565b808060010191505061045e565b50505050565b60015f9054906101000a900473ffffffffffffffffffffffffffffffffffffffff1681565b60015f9054906101000a900473ffffffffffffffffffffffffffffffffffffffff1673ffffffffffffffffffffffffffffffffffffffff163373ffffffffffffffffffffffffffffffffffffffff1614610649576040517f08c379a000000000000000000000000000000000000000000000000000000000815260040161064090610dcc565b60405180910390fd5b5f60405180606001604052808581526020018481526020018381525090505f81908060018154018082558091505060019003905f5260205f2090600302015f909190919091505f820151815f0190816106a29190610f75565b5060208201518160010190816106b89190610f75565b5060408201518160020155505050505050565b5f805f90505f805b5f8054905081101561079f57846040516020016106f09190610c71565b604051602081830303815290604052805190602001205f828154811061071957610718610c87565b5b905f5260205f2090600302016001016040516020016107389190610d46565b6040516020818303038152906040528051906020012003610792575f818154811061076657610765610c87565b5b905f5260205f20906003020160020154836107819190611071565b9250818061078e906110a4565b9250505b80806001019150506106d3565b505f81036107b1575f925050506107c2565b80826107bd9190611118565b925050505b919050565b5f604051905090565b5f80fd5b5f80fd5b5f819050919050565b6107ea816107d8565b81146107f4575f80fd5b50565b5f81359050610805816107e1565b92915050565b5f602082840312156108205761081f6107d0565b5b5f61082d848285016107f7565b91505092915050565b5f81519050919050565b5f82825260208201905092915050565b8281835e5f83830152505050565b5f601f19601f8301169050919050565b5f61087882610836565b6108828185610840565b9350610892818560208601610850565b61089b8161085e565b840191505092915050565b6108af816107d8565b82525050565b5f6060820190508181035f8301526108cd818661086e565b905081810360208301526108e1818561086e565b90506108f060408301846108a6565b949350505050565b5f80fd5b5f80fd5b7f4e487b71000000000000000000000000000000000000000000000000000000005f52604160045260245ffd5b6109368261085e565b810181811067ffffffffffffffff8211171561095557610954610900565b5b80604052505050565b5f6109676107c7565b9050610973828261092d565b919050565b5f67ffffffffffffffff82111561099257610991610900565b5b61099b8261085e565b9050602081019050919050565b828183375f83830152505050565b5f6109c86109c384610978565b61095e565b9050828152602081018484840111156109e4576109e36108fc565b5b6109ef8482856109a8565b509392505050565b5f82601f830112610a0b57610a0a6108f8565b5b8135610a1b8482602086016109b6565b91505092915050565b5f8060408385031215610a3a57610a396107d0565b5b5f83013567ffffffffffffffff811115610a5757610a566107d4565b5b610a63858286016109f7565b925050602083013567ffffffffffffffff811115610a8457610a836107d4565b5b610a90858286016109f7565b9150509250929050565b5f602082019050610aad5f8301846108a6565b92915050565b5f805f60608486031215610aca57610ac96107d0565b5b5f84013567ffffffffffffffff811115610ae757610ae66107d4565b5b610af3868287016109f7565b935050602084013567ffffffffffffffff811115610b1457610b136107d4565b5b610b20868287016109f7565b9250506040610b31868287016107f7565b9150509250925092565b5f73ffffffffffffffffffffffffffffffffffffffff82169050919050565b5f610b6482610b3b565b9050919050565b610b7481610b5a565b82525050565b5f602082019050610b8d5f830184610b6b565b92915050565b5f60208284031215610ba857610ba76107d0565b5b5f82013567ffffffffffffffff811115610bc557610bc46107d4565b5b610bd1848285016109f7565b91505092915050565b7f4e487b71000000000000000000000000000000000000000000000000000000005f52602260045260245ffd5b5f6002820490506001821680610c1e57607f821691505b602082108103610c3157610c30610bda565b5b50919050565b5f81905092915050565b5f610c4b82610836565b610c558185610c37565b9350610c65818560208601610850565b80840191505092915050565b5f610c7c8284610c41565b915081905092915050565b7f4e487b71000000000000000000000000000000000000000000000000000000005f52603260045260245ffd5b5f819050815f5260205f209050919050565b5f8154610cd281610c07565b610cdc8186610c37565b9450600182165f8114610cf65760018114610d0b57610d3d565b60ff1983168652811515820286019350610d3d565b610d1485610cb4565b5f5b83811015610d3557815481890152600182019150602081019050610d16565b838801955050505b50505092915050565b5f610d518284610cc6565b915081905092915050565b7f4f6e6c7920746865206f776e65722063616e20706572666f726d2074686973205f8201527f616374696f6e0000000000000000000000000000000000000000000000000000602082015250565b5f610db6602683610840565b9150610dc182610d5c565b604082019050919050565b5f6020820190508181035f830152610de381610daa565b9050919050565b5f6020601f8301049050919050565b5f82821b905092915050565b5f60088302610e347fffffffffffffffffffffffffffffffffffffffffffffffffffffffffffffffff82610df9565b610e3e8683610df9565b95508019841693508086168417925050509392505050565b5f819050919050565b5f610e79610e74610e6f846107d8565b610e56565b6107d8565b9050919050565b5f819050919050565b610e9283610e5f565b610ea6610e9e82610e80565b848454610e05565b825550505050565b5f90565b610eba610eae565b610ec5818484610e89565b505050565b5b81811015610ee857610edd5f82610eb2565b600181019050610ecb565b5050565b601f821115610f2d57610efe81610cb4565b610f0784610dea565b81016020851015610f16578190505b610f2a610f2285610dea565b830182610eca565b50505b505050565b5f82821c905092915050565b5f610f4d5f1984600802610f32565b1980831691505092915050565b5f610f658383610f3e565b9150826002028217905092915050565b610f7e82610836565b67ffffffffffffffff811115610f9757610f96610900565b5b610fa18254610c07565b610fac828285610eec565b5f60209050601f831160018114610fdd575f8415610fcb578287015190505b610fd58582610f5a565b86555061103c565b601f198416610feb86610cb4565b5f5b8281101561101257848901518255600182019150602085019450602081019050610fed565b8683101561102f578489015161102b601f891682610f3e565b8355505b6001600288020188555050505b505050505050565b7f4e487b71000000000000000000000000000000000000000000000000000000005f52601160045260245ffd5b5f61107b826107d8565b9150611086836107d8565b925082820190508082111561109e5761109d611044565b5b92915050565b5f6110ae826107d8565b91507fffffffffffffffffffffffffffffffffffffffffffffffffffffffffffffffff82036110e0576110df611044565b5b600182019050919050565b7f4e487b71000000000000000000000000000000000000000000000000000000005f52601260045260245ffd5b5f611122826107d8565b915061112d836107d8565b92508261113d5761113c6110eb565b5b82820490509291505056fea26469706673582212204d4bcf1b6377e7f6f23a39913c4cdb49230afed8e5d709ee26587f7ebcdafd7564736f6c634300081a0033",
					"opcodes": "PUSH1 0x80 PUSH1 0x40 MSTORE CALLVALUE DUP1 ISZERO PUSH1 0xE JUMPI PUSH0 DUP1 REVERT JUMPDEST POP CALLER PUSH1 0x1 PUSH0 PUSH2 0x100 EXP DUP2 SLOAD DUP2 PUSH20 0xFFFFFFFFFFFFFFFFFFFFFFFFFFFFFFFFFFFFFFFF MUL NOT AND SWAP1 DUP4 PUSH20 0xFFFFFFFFFFFFFFFFFFFFFFFFFFFFFFFFFFFFFFFF AND MUL OR SWAP1 SSTORE POP PUSH2 0x117E DUP1 PUSH2 0x5C PUSH0 CODECOPY PUSH0 RETURN INVALID PUSH1 0x80 PUSH1 0x40 MSTORE CALLVALUE DUP1 ISZERO PUSH2 0xF JUMPI PUSH0 DUP1 REVERT JUMPDEST POP PUSH1 0x4 CALLDATASIZE LT PUSH2 0x60 JUMPI PUSH0 CALLDATALOAD PUSH1 0xE0 SHR DUP1 PUSH4 0x4B22FC62 EQ PUSH2 0x64 JUMPI DUP1 PUSH4 0x4CAE0EB4 EQ PUSH2 0x96 JUMPI DUP1 PUSH4 0x86D57C08 EQ PUSH2 0xC6 JUMPI DUP1 PUSH4 0x8DA5CB5B EQ PUSH2 0xE2 JUMPI DUP1 PUSH4 0xA8EA6212 EQ PUSH2 0x100 JUMPI DUP1 PUSH4 0xEE43DEB7 EQ PUSH2 0x11C JUMPI JUMPDEST PUSH0 DUP1 REVERT JUMPDEST PUSH2 0x7E PUSH1 0x4 DUP1 CALLDATASIZE SUB DUP2 ADD SWAP1 PUSH2 0x79 SWAP2 SWAP1 PUSH2 0x80B JUMP JUMPDEST PUSH2 0x14C JUMP JUMPDEST PUSH1 0x40 MLOAD PUSH2 0x8D SWAP4 SWAP3 SWAP2 SWAP1 PUSH2 0x8B5 JUMP JUMPDEST PUSH1 0x40 MLOAD DUP1 SWAP2 SUB SWAP1 RETURN JUMPDEST PUSH2 0xB0 PUSH1 0x4 DUP1 CALLDATASIZE SUB DUP2 ADD SWAP1 PUSH2 0xAB SWAP2 SWAP1 PUSH2 0xA24 JUMP JUMPDEST PUSH2 0x28C JUMP JUMPDEST PUSH1 0x40 MLOAD PUSH2 0xBD SWAP2 SWAP1 PUSH2 0xA9A JUMP JUMPDEST PUSH1 0x40 MLOAD DUP1 SWAP2 SUB SWAP1 RETURN JUMPDEST PUSH2 0xE0 PUSH1 0x4 DUP1 CALLDATASIZE SUB DUP2 ADD SWAP1 PUSH2 0xDB SWAP2 SWAP1 PUSH2 0xAB3 JUMP JUMPDEST PUSH2 0x3CD JUMP JUMPDEST STOP JUMPDEST PUSH2 0xEA PUSH2 0x595 JUMP JUMPDEST PUSH1 0x40 MLOAD PUSH2 0xF7 SWAP2 SWAP1 PUSH2 0xB7A JUMP JUMPDEST PUSH1 0x40 MLOAD DUP1 SWAP2 SUB SWAP1 RETURN JUMPDEST PUSH2 0x11A PUSH1 0x4 DUP1 CALLDATASIZE SUB DUP2 ADD SWAP1 PUSH2 0x115 SWAP2 SWAP1 PUSH2 0xAB3 JUMP JUMPDEST PUSH2 0x5BA JUMP JUMPDEST STOP JUMPDEST PUSH2 0x136 PUSH1 0x4 DUP1 CALLDATASIZE SUB DUP2 ADD SWAP1 PUSH2 0x131 SWAP2 SWAP1 PUSH2 0xB93 JUMP JUMPDEST PUSH2 0x6CB JUMP JUMPDEST PUSH1 0x40 MLOAD PUSH2 0x143 SWAP2 SWAP1 PUSH2 0xA9A JUMP JUMPDEST PUSH1 0x40 MLOAD DUP1 SWAP2 SUB SWAP1 RETURN JUMPDEST PUSH0 DUP2 DUP2 SLOAD DUP2 LT PUSH2 0x15A JUMPI PUSH0 DUP1 REVERT JUMPDEST SWAP1 PUSH0 MSTORE PUSH1 0x20 PUSH0 KECCAK256 SWAP1 PUSH1 0x3 MUL ADD PUSH0 SWAP2 POP SWAP1 POP DUP1 PUSH0 ADD DUP1 SLOAD PUSH2 0x179 SWAP1 PUSH2 0xC07 JUMP JUMPDEST DUP1 PUSH1 0x1F ADD PUSH1 0x20 DUP1 SWAP2 DIV MUL PUSH1 0x20 ADD PUSH1 0x40 MLOAD SWAP1 DUP2 ADD PUSH1 0x40 MSTORE DUP1 SWAP3 SWAP2 SWAP1 DUP2 DUP2 MSTORE PUSH1 0x20 ADD DUP3 DUP1 SLOAD PUSH2 0x1A5 SWAP1 PUSH2 0xC07 JUMP JUMPDEST DUP1 ISZERO PUSH2 0x1F0 JUMPI DUP1 PUSH1 0x1F LT PUSH2 0x1C7 JUMPI PUSH2 0x100 DUP1 DUP4 SLOAD DIV MUL DUP4 MSTORE SWAP2 PUSH1 0x20 ADD SWAP2 PUSH2 0x1F0 JUMP JUMPDEST DUP3 ADD SWAP2 SWAP1 PUSH0 MSTORE PUSH1 0x20 PUSH0 KECCAK256 SWAP1 JUMPDEST DUP2 SLOAD DUP2 MSTORE SWAP1 PUSH1 0x1 ADD SWAP1 PUSH1 0x20 ADD DUP1 DUP4 GT PUSH2 0x1D3 JUMPI DUP3 SWAP1 SUB PUSH1 0x1F AND DUP3 ADD SWAP2 JUMPDEST POP POP POP POP POP SWAP1 DUP1 PUSH1 0x1 ADD DUP1 SLOAD PUSH2 0x205 SWAP1 PUSH2 0xC07 JUMP JUMPDEST DUP1 PUSH1 0x1F ADD PUSH1 0x20 DUP1 SWAP2 DIV MUL PUSH1 0x20 ADD PUSH1 0x40 MLOAD SWAP1 DUP2 ADD PUSH1 0x40 MSTORE DUP1 SWAP3 SWAP2 SWAP1 DUP2 DUP2 MSTORE PUSH1 0x20 ADD DUP3 DUP1 SLOAD PUSH2 0x231 SWAP1 PUSH2 0xC07 JUMP JUMPDEST DUP1 ISZERO PUSH2 0x27C JUMPI DUP1 PUSH1 0x1F LT PUSH2 0x253 JUMPI PUSH2 0x100 DUP1 DUP4 SLOAD DIV MUL DUP4 MSTORE SWAP2 PUSH1 0x20 ADD SWAP2 PUSH2 0x27C JUMP JUMPDEST DUP3 ADD SWAP2 SWAP1 PUSH0 MSTORE PUSH1 0x20 PUSH0 KECCAK256 SWAP1 JUMPDEST DUP2 SLOAD DUP2 MSTORE SWAP1 PUSH1 0x1 ADD SWAP1 PUSH1 0x20 ADD DUP1 DUP4 GT PUSH2 0x25F JUMPI DUP3 SWAP1 SUB PUSH1 0x1F AND DUP3 ADD SWAP2 JUMPDEST POP POP POP POP POP SWAP1 DUP1 PUSH1 0x2 ADD SLOAD SWAP1 POP DUP4 JUMP JUMPDEST PUSH0 DUP1 PUSH0 SWAP1 POP JUMPDEST PUSH0 DUP1 SLOAD SWAP1 POP DUP2 LT ISZERO PUSH2 0x3C2 JUMPI DUP4 PUSH1 0x40 MLOAD PUSH1 0x20 ADD PUSH2 0x2AF SWAP2 SWAP1 PUSH2 0xC71 JUMP JUMPDEST PUSH1 0x40 MLOAD PUSH1 0x20 DUP2 DUP4 SUB SUB DUP2 MSTORE SWAP1 PUSH1 0x40 MSTORE DUP1 MLOAD SWAP1 PUSH1 0x20 ADD KECCAK256 PUSH0 DUP3 DUP2 SLOAD DUP2 LT PUSH2 0x2D8 JUMPI PUSH2 0x2D7 PUSH2 0xC87 JUMP JUMPDEST JUMPDEST SWAP1 PUSH0 MSTORE PUSH1 0x20 PUSH0 KECCAK256 SWAP1 PUSH1 0x3 MUL ADD PUSH0 ADD PUSH1 0x40 MLOAD PUSH1 0x20 ADD PUSH2 0x2F6 SWAP2 SWAP1 PUSH2 0xD46 JUMP JUMPDEST PUSH1 0x40 MLOAD PUSH1 0x20 DUP2 DUP4 SUB SUB DUP2 MSTORE SWAP1 PUSH1 0x40 MSTORE DUP1 MLOAD SWAP1 PUSH1 0x20 ADD KECCAK256 EQ DUP1 ISZERO PUSH2 0x385 JUMPI POP DUP3 PUSH1 0x40 MLOAD PUSH1 0x20 ADD PUSH2 0x325 SWAP2 SWAP1 PUSH2 0xC71 JUMP JUMPDEST PUSH1 0x40 MLOAD PUSH1 0x20 DUP2 DUP4 SUB SUB DUP2 MSTORE SWAP1 PUSH1 0x40 MSTORE DUP1 MLOAD SWAP1 PUSH1 0x20 ADD KECCAK256 PUSH0 DUP3 DUP2 SLOAD DUP2 LT PUSH2 0x34E JUMPI PUSH2 0x34D PUSH2 0xC87 JUMP JUMPDEST JUMPDEST SWAP1 PUSH0 MSTORE PUSH1 0x20 PUSH0 KECCAK256 SWAP1 PUSH1 0x3 MUL ADD PUSH1 0x1 ADD PUSH1 0x40 MLOAD PUSH1 0x20 ADD PUSH2 0x36D SWAP2 SWAP1 PUSH2 0xD46 JUMP JUMPDEST PUSH1 0x40 MLOAD PUSH1 0x20 DUP2 DUP4 SUB SUB DUP2 MSTORE SWAP1 PUSH1 0x40 MSTORE DUP1 MLOAD SWAP1 PUSH1 0x20 ADD KECCAK256 EQ JUMPDEST ISZERO PUSH2 0x3B5 JUMPI PUSH0 DUP2 DUP2 SLOAD DUP2 LT PUSH2 0x39D JUMPI PUSH2 0x39C PUSH2 0xC87 JUMP JUMPDEST JUMPDEST SWAP1 PUSH0 MSTORE PUSH1 0x20 PUSH0 KECCAK256 SWAP1 PUSH1 0x3 MUL ADD PUSH1 0x2 ADD SLOAD SWAP2 POP POP PUSH2 0x3C7 JUMP JUMPDEST DUP1 DUP1 PUSH1 0x1 ADD SWAP2 POP POP PUSH2 0x292 JUMP JUMPDEST POP PUSH0 SWAP1 POP JUMPDEST SWAP3 SWAP2 POP POP JUMP JUMPDEST PUSH1 0x1 PUSH0 SWAP1 SLOAD SWAP1 PUSH2 0x100 EXP SWAP1 DIV PUSH20 0xFFFFFFFFFFFFFFFFFFFFFFFFFFFFFFFFFFFFFFFF AND PUSH20 0xFFFFFFFFFFFFFFFFFFFFFFFFFFFFFFFFFFFFFFFF AND CALLER PUSH20 0xFFFFFFFFFFFFFFFFFFFFFFFFFFFFFFFFFFFFFFFF AND EQ PUSH2 0x45C JUMPI PUSH1 0x40 MLOAD PUSH32 0x8C379A000000000000000000000000000000000000000000000000000000000 DUP2 MSTORE PUSH1 0x4 ADD PUSH2 0x453 SWAP1 PUSH2 0xDCC JUMP JUMPDEST PUSH1 0x40 MLOAD DUP1 SWAP2 SUB SWAP1 REVERT JUMPDEST PUSH0 JUMPDEST PUSH0 DUP1 SLOAD SWAP1 POP DUP2 LT ISZERO PUSH2 0x58F JUMPI DUP4 PUSH1 0x40 MLOAD PUSH1 0x20 ADD PUSH2 0x47B SWAP2 SWAP1 PUSH2 0xC71 JUMP JUMPDEST PUSH1 0x40 MLOAD PUSH1 0x20 DUP2 DUP4 SUB SUB DUP2 MSTORE SWAP1 PUSH1 0x40 MSTORE DUP1 MLOAD SWAP1 PUSH1 0x20 ADD KECCAK256 PUSH0 DUP3 DUP2 SLOAD DUP2 LT PUSH2 0x4A4 JUMPI PUSH2 0x4A3 PUSH2 0xC87 JUMP JUMPDEST JUMPDEST SWAP1 PUSH0 MSTORE PUSH1 0x20 PUSH0 KECCAK256 SWAP1 PUSH1 0x3 MUL ADD PUSH0 ADD PUSH1 0x40 MLOAD PUSH1 0x20 ADD PUSH2 0x4C2 SWAP2 SWAP1 PUSH2 0xD46 JUMP JUMPDEST PUSH1 0x40 MLOAD PUSH1 0x20 DUP2 DUP4 SUB SUB DUP2 MSTORE SWAP1 PUSH1 0x40 MSTORE DUP1 MLOAD SWAP1 PUSH1 0x20 ADD KECCAK256 EQ DUP1 ISZERO PUSH2 0x551 JUMPI POP DUP3 PUSH1 0x40 MLOAD PUSH1 0x20 ADD PUSH2 0x4F1 SWAP2 SWAP1 PUSH2 0xC71 JUMP JUMPDEST PUSH1 0x40 MLOAD PUSH1 0x20 DUP2 DUP4 SUB SUB DUP2 MSTORE SWAP1 PUSH1 0x40 MSTORE DUP1 MLOAD SWAP1 PUSH1 0x20 ADD KECCAK256 PUSH0 DUP3 DUP2 SLOAD DUP2 LT PUSH2 0x51A JUMPI PUSH2 0x519 PUSH2 0xC87 JUMP JUMPDEST JUMPDEST SWAP1 PUSH0 MSTORE PUSH1 0x20 PUSH0 KECCAK256 SWAP1 PUSH1 0x3 MUL ADD PUSH1 0x1 ADD PUSH1 0x40 MLOAD PUSH1 0x20 ADD PUSH2 0x539 SWAP2 SWAP1 PUSH2 0xD46 JUMP JUMPDEST PUSH1 0x40 MLOAD PUSH1 0x20 DUP2 DUP4 SUB SUB DUP2 MSTORE SWAP1 PUSH1 0x40 MSTORE DUP1 MLOAD SWAP1 PUSH1 0x20 ADD KECCAK256 EQ JUMPDEST ISZERO PUSH2 0x582 JUMPI DUP2 PUSH0 DUP3 DUP2 SLOAD DUP2 LT PUSH2 0x56A JUMPI PUSH2 0x569 PUSH2 0xC87 JUMP JUMPDEST JUMPDEST SWAP1 PUSH0 MSTORE PUSH1 0x20 PUSH0 KECCAK256 SWAP1 PUSH1 0x3 MUL ADD PUSH1 0x2 ADD DUP2 SWAP1 SSTORE POP PUSH2 0x58F JUMP JUMPDEST DUP1 DUP1 PUSH1 0x1 ADD SWAP2 POP POP PUSH2 0x45E JUMP JUMPDEST POP POP POP POP JUMP JUMPDEST PUSH1 0x1 PUSH0 SWAP1 SLOAD SWAP1 PUSH2 0x100 EXP SWAP1 DIV PUSH20 0xFFFFFFFFFFFFFFFFFFFFFFFFFFFFFFFFFFFFFFFF AND DUP2 JUMP JUMPDEST PUSH1 0x1 PUSH0 SWAP1 SLOAD SWAP1 PUSH2 0x100 EXP SWAP1 DIV PUSH20 0xFFFFFFFFFFFFFFFFFFFFFFFFFFFFFFFFFFFFFFFF AND PUSH20 0xFFFFFFFFFFFFFFFFFFFFFFFFFFFFFFFFFFFFFFFF AND CALLER PUSH20 0xFFFFFFFFFFFFFFFFFFFFFFFFFFFFFFFFFFFFFFFF AND EQ PUSH2 0x649 JUMPI PUSH1 0x40 MLOAD PUSH32 0x8C379A000000000000000000000000000000000000000000000000000000000 DUP2 MSTORE PUSH1 0x4 ADD PUSH2 0x640 SWAP1 PUSH2 0xDCC JUMP JUMPDEST PUSH1 0x40 MLOAD DUP1 SWAP2 SUB SWAP1 REVERT JUMPDEST PUSH0 PUSH1 0x40 MLOAD DUP1 PUSH1 0x60 ADD PUSH1 0x40 MSTORE DUP1 DUP6 DUP2 MSTORE PUSH1 0x20 ADD DUP5 DUP2 MSTORE PUSH1 0x20 ADD DUP4 DUP2 MSTORE POP SWAP1 POP PUSH0 DUP2 SWAP1 DUP1 PUSH1 0x1 DUP2 SLOAD ADD DUP1 DUP3 SSTORE DUP1 SWAP2 POP POP PUSH1 0x1 SWAP1 SUB SWAP1 PUSH0 MSTORE PUSH1 0x20 PUSH0 KECCAK256 SWAP1 PUSH1 0x3 MUL ADD PUSH0 SWAP1 SWAP2 SWAP1 SWAP2 SWAP1 SWAP2 POP PUSH0 DUP3 ADD MLOAD DUP2 PUSH0 ADD SWAP1 DUP2 PUSH2 0x6A2 SWAP2 SWAP1 PUSH2 0xF75 JUMP JUMPDEST POP PUSH1 0x20 DUP3 ADD MLOAD DUP2 PUSH1 0x1 ADD SWAP1 DUP2 PUSH2 0x6B8 SWAP2 SWAP1 PUSH2 0xF75 JUMP JUMPDEST POP PUSH1 0x40 DUP3 ADD MLOAD DUP2 PUSH1 0x2 ADD SSTORE POP POP POP POP POP POP JUMP JUMPDEST PUSH0 DUP1 PUSH0 SWAP1 POP PUSH0 DUP1 JUMPDEST PUSH0 DUP1 SLOAD SWAP1 POP DUP2 LT ISZERO PUSH2 0x79F JUMPI DUP5 PUSH1 0x40 MLOAD PUSH1 0x20 ADD PUSH2 0x6F0 SWAP2 SWAP1 PUSH2 0xC71 JUMP JUMPDEST PUSH1 0x40 MLOAD PUSH1 0x20 DUP2 DUP4 SUB SUB DUP2 MSTORE SWAP1 PUSH1 0x40 MSTORE DUP1 MLOAD SWAP1 PUSH1 0x20 ADD KECCAK256 PUSH0 DUP3 DUP2 SLOAD DUP2 LT PUSH2 0x719 JUMPI PUSH2 0x718 PUSH2 0xC87 JUMP JUMPDEST JUMPDEST SWAP1 PUSH0 MSTORE PUSH1 0x20 PUSH0 KECCAK256 SWAP1 PUSH1 0x3 MUL ADD PUSH1 0x1 ADD PUSH1 0x40 MLOAD PUSH1 0x20 ADD PUSH2 0x738 SWAP2 SWAP1 PUSH2 0xD46 JUMP JUMPDEST PUSH1 0x40 MLOAD PUSH1 0x20 DUP2 DUP4 SUB SUB DUP2 MSTORE SWAP1 PUSH1 0x40 MSTORE DUP1 MLOAD SWAP1 PUSH1 0x20 ADD KECCAK256 SUB PUSH2 0x792 JUMPI PUSH0 DUP2 DUP2 SLOAD DUP2 LT PUSH2 0x766 JUMPI PUSH2 0x765 PUSH2 0xC87 JUMP JUMPDEST JUMPDEST SWAP1 PUSH0 MSTORE PUSH1 0x20 PUSH0 KECCAK256 SWAP1 PUSH1 0x3 MUL ADD PUSH1 0x2 ADD SLOAD DUP4 PUSH2 0x781 SWAP2 SWAP1 PUSH2 0x1071 JUMP JUMPDEST SWAP3 POP DUP2 DUP1 PUSH2 0x78E SWAP1 PUSH2 0x10A4 JUMP JUMPDEST SWAP3 POP POP JUMPDEST DUP1 DUP1 PUSH1 0x1 ADD SWAP2 POP POP PUSH2 0x6D3 JUMP JUMPDEST POP PUSH0 DUP2 SUB PUSH2 0x7B1 JUMPI PUSH0 SWAP3 POP POP POP PUSH2 0x7C2 JUMP JUMPDEST DUP1 DUP3 PUSH2 0x7BD SWAP2 SWAP1 PUSH2 0x1118 JUMP JUMPDEST SWAP3 POP POP POP JUMPDEST SWAP2 SWAP1 POP JUMP JUMPDEST PUSH0 PUSH1 0x40 MLOAD SWAP1 POP SWAP1 JUMP JUMPDEST PUSH0 DUP1 REVERT JUMPDEST PUSH0 DUP1 REVERT JUMPDEST PUSH0 DUP2 SWAP1 POP SWAP2 SWAP1 POP JUMP JUMPDEST PUSH2 0x7EA DUP2 PUSH2 0x7D8 JUMP JUMPDEST DUP2 EQ PUSH2 0x7F4 JUMPI PUSH0 DUP1 REVERT JUMPDEST POP JUMP JUMPDEST PUSH0 DUP2 CALLDATALOAD SWAP1 POP PUSH2 0x805 DUP2 PUSH2 0x7E1 JUMP JUMPDEST SWAP3 SWAP2 POP POP JUMP JUMPDEST PUSH0 PUSH1 0x20 DUP3 DUP5 SUB SLT ISZERO PUSH2 0x820 JUMPI PUSH2 0x81F PUSH2 0x7D0 JUMP JUMPDEST JUMPDEST PUSH0 PUSH2 0x82D DUP5 DUP3 DUP6 ADD PUSH2 0x7F7 JUMP JUMPDEST SWAP2 POP POP SWAP3 SWAP2 POP POP JUMP JUMPDEST PUSH0 DUP2 MLOAD SWAP1 POP SWAP2 SWAP1 POP JUMP JUMPDEST PUSH0 DUP3 DUP3 MSTORE PUSH1 0x20 DUP3 ADD SWAP1 POP SWAP3 SWAP2 POP POP JUMP JUMPDEST DUP3 DUP2 DUP4 MCOPY PUSH0 DUP4 DUP4 ADD MSTORE POP POP POP JUMP JUMPDEST PUSH0 PUSH1 0x1F NOT PUSH1 0x1F DUP4 ADD AND SWAP1 POP SWAP2 SWAP1 POP JUMP JUMPDEST PUSH0 PUSH2 0x878 DUP3 PUSH2 0x836 JUMP JUMPDEST PUSH2 0x882 DUP2 DUP6 PUSH2 0x840 JUMP JUMPDEST SWAP4 POP PUSH2 0x892 DUP2 DUP6 PUSH1 0x20 DUP7 ADD PUSH2 0x850 JUMP JUMPDEST PUSH2 0x89B DUP2 PUSH2 0x85E JUMP JUMPDEST DUP5 ADD SWAP2 POP POP SWAP3 SWAP2 POP POP JUMP JUMPDEST PUSH2 0x8AF DUP2 PUSH2 0x7D8 JUMP JUMPDEST DUP3 MSTORE POP POP JUMP JUMPDEST PUSH0 PUSH1 0x60 DUP3 ADD SWAP1 POP DUP2 DUP2 SUB PUSH0 DUP4 ADD MSTORE PUSH2 0x8CD DUP2 DUP7 PUSH2 0x86E JUMP JUMPDEST SWAP1 POP DUP2 DUP2 SUB PUSH1 0x20 DUP4 ADD MSTORE PUSH2 0x8E1 DUP2 DUP6 PUSH2 0x86E JUMP JUMPDEST SWAP1 POP PUSH2 0x8F0 PUSH1 0x40 DUP4 ADD DUP5 PUSH2 0x8A6 JUMP JUMPDEST SWAP5 SWAP4 POP POP POP POP JUMP JUMPDEST PUSH0 DUP1 REVERT JUMPDEST PUSH0 DUP1 REVERT JUMPDEST PUSH32 0x4E487B7100000000000000000000000000000000000000000000000000000000 PUSH0 MSTORE PUSH1 0x41 PUSH1 0x4 MSTORE PUSH1 0x24 PUSH0 REVERT JUMPDEST PUSH2 0x936 DUP3 PUSH2 0x85E JUMP JUMPDEST DUP2 ADD DUP2 DUP2 LT PUSH8 0xFFFFFFFFFFFFFFFF DUP3 GT OR ISZERO PUSH2 0x955 JUMPI PUSH2 0x954 PUSH2 0x900 JUMP JUMPDEST JUMPDEST DUP1 PUSH1 0x40 MSTORE POP POP POP JUMP JUMPDEST PUSH0 PUSH2 0x967 PUSH2 0x7C7 JUMP JUMPDEST SWAP1 POP PUSH2 0x973 DUP3 DUP3 PUSH2 0x92D JUMP JUMPDEST SWAP2 SWAP1 POP JUMP JUMPDEST PUSH0 PUSH8 0xFFFFFFFFFFFFFFFF DUP3 GT ISZERO PUSH2 0x992 JUMPI PUSH2 0x991 PUSH2 0x900 JUMP JUMPDEST JUMPDEST PUSH2 0x99B DUP3 PUSH2 0x85E JUMP JUMPDEST SWAP1 POP PUSH1 0x20 DUP2 ADD SWAP1 POP SWAP2 SWAP1 POP JUMP JUMPDEST DUP3 DUP2 DUP4 CALLDATACOPY PUSH0 DUP4 DUP4 ADD MSTORE POP POP POP JUMP JUMPDEST PUSH0 PUSH2 0x9C8 PUSH2 0x9C3 DUP5 PUSH2 0x978 JUMP JUMPDEST PUSH2 0x95E JUMP JUMPDEST SWAP1 POP DUP3 DUP2 MSTORE PUSH1 0x20 DUP2 ADD DUP5 DUP5 DUP5 ADD GT ISZERO PUSH2 0x9E4 JUMPI PUSH2 0x9E3 PUSH2 0x8FC JUMP JUMPDEST JUMPDEST PUSH2 0x9EF DUP5 DUP3 DUP6 PUSH2 0x9A8 JUMP JUMPDEST POP SWAP4 SWAP3 POP POP POP JUMP JUMPDEST PUSH0 DUP3 PUSH1 0x1F DUP4 ADD SLT PUSH2 0xA0B JUMPI PUSH2 0xA0A PUSH2 0x8F8 JUMP JUMPDEST JUMPDEST DUP2 CALLDATALOAD PUSH2 0xA1B DUP5 DUP3 PUSH1 0x20 DUP7 ADD PUSH2 0x9B6 JUMP JUMPDEST SWAP2 POP POP SWAP3 SWAP2 POP POP JUMP JUMPDEST PUSH0 DUP1 PUSH1 0x40 DUP4 DUP6 SUB SLT ISZERO PUSH2 0xA3A JUMPI PUSH2 0xA39 PUSH2 0x7D0 JUMP JUMPDEST JUMPDEST PUSH0 DUP4 ADD CALLDATALOAD PUSH8 0xFFFFFFFFFFFFFFFF DUP2 GT ISZERO PUSH2 0xA57 JUMPI PUSH2 0xA56 PUSH2 0x7D4 JUMP JUMPDEST JUMPDEST PUSH2 0xA63 DUP6 DUP3 DUP7 ADD PUSH2 0x9F7 JUMP JUMPDEST SWAP3 POP POP PUSH1 0x20 DUP4 ADD CALLDATALOAD PUSH8 0xFFFFFFFFFFFFFFFF DUP2 GT ISZERO PUSH2 0xA84 JUMPI PUSH2 0xA83 PUSH2 0x7D4 JUMP JUMPDEST JUMPDEST PUSH2 0xA90 DUP6 DUP3 DUP7 ADD PUSH2 0x9F7 JUMP JUMPDEST SWAP2 POP POP SWAP3 POP SWAP3 SWAP1 POP JUMP JUMPDEST PUSH0 PUSH1 0x20 DUP3 ADD SWAP1 POP PUSH2 0xAAD PUSH0 DUP4 ADD DUP5 PUSH2 0x8A6 JUMP JUMPDEST SWAP3 SWAP2 POP POP JUMP JUMPDEST PUSH0 DUP1 PUSH0 PUSH1 0x60 DUP5 DUP7 SUB SLT ISZERO PUSH2 0xACA JUMPI PUSH2 0xAC9 PUSH2 0x7D0 JUMP JUMPDEST JUMPDEST PUSH0 DUP5 ADD CALLDATALOAD PUSH8 0xFFFFFFFFFFFFFFFF DUP2 GT ISZERO PUSH2 0xAE7 JUMPI PUSH2 0xAE6 PUSH2 0x7D4 JUMP JUMPDEST JUMPDEST PUSH2 0xAF3 DUP7 DUP3 DUP8 ADD PUSH2 0x9F7 JUMP JUMPDEST SWAP4 POP POP PUSH1 0x20 DUP5 ADD CALLDATALOAD PUSH8 0xFFFFFFFFFFFFFFFF DUP2 GT ISZERO PUSH2 0xB14 JUMPI PUSH2 0xB13 PUSH2 0x7D4 JUMP JUMPDEST JUMPDEST PUSH2 0xB20 DUP7 DUP3 DUP8 ADD PUSH2 0x9F7 JUMP JUMPDEST SWAP3 POP POP PUSH1 0x40 PUSH2 0xB31 DUP7 DUP3 DUP8 ADD PUSH2 0x7F7 JUMP JUMPDEST SWAP2 POP POP SWAP3 POP SWAP3 POP SWAP3 JUMP JUMPDEST PUSH0 PUSH20 0xFFFFFFFFFFFFFFFFFFFFFFFFFFFFFFFFFFFFFFFF DUP3 AND SWAP1 POP SWAP2 SWAP1 POP JUMP JUMPDEST PUSH0 PUSH2 0xB64 DUP3 PUSH2 0xB3B JUMP JUMPDEST SWAP1 POP SWAP2 SWAP1 POP JUMP JUMPDEST PUSH2 0xB74 DUP2 PUSH2 0xB5A JUMP JUMPDEST DUP3 MSTORE POP POP JUMP JUMPDEST PUSH0 PUSH1 0x20 DUP3 ADD SWAP1 POP PUSH2 0xB8D PUSH0 DUP4 ADD DUP5 PUSH2 0xB6B JUMP JUMPDEST SWAP3 SWAP2 POP POP JUMP JUMPDEST PUSH0 PUSH1 0x20 DUP3 DUP5 SUB SLT ISZERO PUSH2 0xBA8 JUMPI PUSH2 0xBA7 PUSH2 0x7D0 JUMP JUMPDEST JUMPDEST PUSH0 DUP3 ADD CALLDATALOAD PUSH8 0xFFFFFFFFFFFFFFFF DUP2 GT ISZERO PUSH2 0xBC5 JUMPI PUSH2 0xBC4 PUSH2 0x7D4 JUMP JUMPDEST JUMPDEST PUSH2 0xBD1 DUP5 DUP3 DUP6 ADD PUSH2 0x9F7 JUMP JUMPDEST SWAP2 POP POP SWAP3 SWAP2 POP POP JUMP JUMPDEST PUSH32 0x4E487B7100000000000000000000000000000000000000000000000000000000 PUSH0 MSTORE PUSH1 0x22 PUSH1 0x4 MSTORE PUSH1 0x24 PUSH0 REVERT JUMPDEST PUSH0 PUSH1 0x2 DUP3 DIV SWAP1 POP PUSH1 0x1 DUP3 AND DUP1 PUSH2 0xC1E JUMPI PUSH1 0x7F DUP3 AND SWAP2 POP JUMPDEST PUSH1 0x20 DUP3 LT DUP2 SUB PUSH2 0xC31 JUMPI PUSH2 0xC30 PUSH2 0xBDA JUMP JUMPDEST JUMPDEST POP SWAP2 SWAP1 POP JUMP JUMPDEST PUSH0 DUP2 SWAP1 POP SWAP3 SWAP2 POP POP JUMP JUMPDEST PUSH0 PUSH2 0xC4B DUP3 PUSH2 0x836 JUMP JUMPDEST PUSH2 0xC55 DUP2 DUP6 PUSH2 0xC37 JUMP JUMPDEST SWAP4 POP PUSH2 0xC65 DUP2 DUP6 PUSH1 0x20 DUP7 ADD PUSH2 0x850 JUMP JUMPDEST DUP1 DUP5 ADD SWAP2 POP POP SWAP3 SWAP2 POP POP JUMP JUMPDEST PUSH0 PUSH2 0xC7C DUP3 DUP5 PUSH2 0xC41 JUMP JUMPDEST SWAP2 POP DUP2 SWAP1 POP SWAP3 SWAP2 POP POP JUMP JUMPDEST PUSH32 0x4E487B7100000000000000000000000000000000000000000000000000000000 PUSH0 MSTORE PUSH1 0x32 PUSH1 0x4 MSTORE PUSH1 0x24 PUSH0 REVERT JUMPDEST PUSH0 DUP2 SWAP1 POP DUP2 PUSH0 MSTORE PUSH1 0x20 PUSH0 KECCAK256 SWAP1 POP SWAP2 SWAP1 POP JUMP JUMPDEST PUSH0 DUP2 SLOAD PUSH2 0xCD2 DUP2 PUSH2 0xC07 JUMP JUMPDEST PUSH2 0xCDC DUP2 DUP7 PUSH2 0xC37 JUMP JUMPDEST SWAP5 POP PUSH1 0x1 DUP3 AND PUSH0 DUP2 EQ PUSH2 0xCF6 JUMPI PUSH1 0x1 DUP2 EQ PUSH2 0xD0B JUMPI PUSH2 0xD3D JUMP JUMPDEST PUSH1 0xFF NOT DUP4 AND DUP7 MSTORE DUP2 ISZERO ISZERO DUP3 MUL DUP7 ADD SWAP4 POP PUSH2 0xD3D JUMP JUMPDEST PUSH2 0xD14 DUP6 PUSH2 0xCB4 JUMP JUMPDEST PUSH0 JUMPDEST DUP4 DUP2 LT ISZERO PUSH2 0xD35 JUMPI DUP2 SLOAD DUP2 DUP10 ADD MSTORE PUSH1 0x1 DUP3 ADD SWAP2 POP PUSH1 0x20 DUP2 ADD SWAP1 POP PUSH2 0xD16 JUMP JUMPDEST DUP4 DUP9 ADD SWAP6 POP POP POP JUMPDEST POP POP POP SWAP3 SWAP2 POP POP JUMP JUMPDEST PUSH0 PUSH2 0xD51 DUP3 DUP5 PUSH2 0xCC6 JUMP JUMPDEST SWAP2 POP DUP2 SWAP1 POP SWAP3 SWAP2 POP POP JUMP JUMPDEST PUSH32 0x4F6E6C7920746865206F776E65722063616E20706572666F726D207468697320 PUSH0 DUP3 ADD MSTORE PUSH32 0x616374696F6E0000000000000000000000000000000000000000000000000000 PUSH1 0x20 DUP3 ADD MSTORE POP JUMP JUMPDEST PUSH0 PUSH2 0xDB6 PUSH1 0x26 DUP4 PUSH2 0x840 JUMP JUMPDEST SWAP2 POP PUSH2 0xDC1 DUP3 PUSH2 0xD5C JUMP JUMPDEST PUSH1 0x40 DUP3 ADD SWAP1 POP SWAP2 SWAP1 POP JUMP JUMPDEST PUSH0 PUSH1 0x20 DUP3 ADD SWAP1 POP DUP2 DUP2 SUB PUSH0 DUP4 ADD MSTORE PUSH2 0xDE3 DUP2 PUSH2 0xDAA JUMP JUMPDEST SWAP1 POP SWAP2 SWAP1 POP JUMP JUMPDEST PUSH0 PUSH1 0x20 PUSH1 0x1F DUP4 ADD DIV SWAP1 POP SWAP2 SWAP1 POP JUMP JUMPDEST PUSH0 DUP3 DUP3 SHL SWAP1 POP SWAP3 SWAP2 POP POP JUMP JUMPDEST PUSH0 PUSH1 0x8 DUP4 MUL PUSH2 0xE34 PUSH32 0xFFFFFFFFFFFFFFFFFFFFFFFFFFFFFFFFFFFFFFFFFFFFFFFFFFFFFFFFFFFFFFFF DUP3 PUSH2 0xDF9 JUMP JUMPDEST PUSH2 0xE3E DUP7 DUP4 PUSH2 0xDF9 JUMP JUMPDEST SWAP6 POP DUP1 NOT DUP5 AND SWAP4 POP DUP1 DUP7 AND DUP5 OR SWAP3 POP POP POP SWAP4 SWAP3 POP POP POP JUMP JUMPDEST PUSH0 DUP2 SWAP1 POP SWAP2 SWAP1 POP JUMP JUMPDEST PUSH0 PUSH2 0xE79 PUSH2 0xE74 PUSH2 0xE6F DUP5 PUSH2 0x7D8 JUMP JUMPDEST PUSH2 0xE56 JUMP JUMPDEST PUSH2 0x7D8 JUMP JUMPDEST SWAP1 POP SWAP2 SWAP1 POP JUMP JUMPDEST PUSH0 DUP2 SWAP1 POP SWAP2 SWAP1 POP JUMP JUMPDEST PUSH2 0xE92 DUP4 PUSH2 0xE5F JUMP JUMPDEST PUSH2 0xEA6 PUSH2 0xE9E DUP3 PUSH2 0xE80 JUMP JUMPDEST DUP5 DUP5 SLOAD PUSH2 0xE05 JUMP JUMPDEST DUP3 SSTORE POP POP POP POP JUMP JUMPDEST PUSH0 SWAP1 JUMP JUMPDEST PUSH2 0xEBA PUSH2 0xEAE JUMP JUMPDEST PUSH2 0xEC5 DUP2 DUP5 DUP5 PUSH2 0xE89 JUMP JUMPDEST POP POP POP JUMP JUMPDEST JUMPDEST DUP2 DUP2 LT ISZERO PUSH2 0xEE8 JUMPI PUSH2 0xEDD PUSH0 DUP3 PUSH2 0xEB2 JUMP JUMPDEST PUSH1 0x1 DUP2 ADD SWAP1 POP PUSH2 0xECB JUMP JUMPDEST POP POP JUMP JUMPDEST PUSH1 0x1F DUP3 GT ISZERO PUSH2 0xF2D JUMPI PUSH2 0xEFE DUP2 PUSH2 0xCB4 JUMP JUMPDEST PUSH2 0xF07 DUP5 PUSH2 0xDEA JUMP JUMPDEST DUP2 ADD PUSH1 0x20 DUP6 LT ISZERO PUSH2 0xF16 JUMPI DUP2 SWAP1 POP JUMPDEST PUSH2 0xF2A PUSH2 0xF22 DUP6 PUSH2 0xDEA JUMP JUMPDEST DUP4 ADD DUP3 PUSH2 0xECA JUMP JUMPDEST POP POP JUMPDEST POP POP POP JUMP JUMPDEST PUSH0 DUP3 DUP3 SHR SWAP1 POP SWAP3 SWAP2 POP POP JUMP JUMPDEST PUSH0 PUSH2 0xF4D PUSH0 NOT DUP5 PUSH1 0x8 MUL PUSH2 0xF32 JUMP JUMPDEST NOT DUP1 DUP4 AND SWAP2 POP POP SWAP3 SWAP2 POP POP JUMP JUMPDEST PUSH0 PUSH2 0xF65 DUP4 DUP4 PUSH2 0xF3E JUMP JUMPDEST SWAP2 POP DUP3 PUSH1 0x2 MUL DUP3 OR SWAP1 POP SWAP3 SWAP2 POP POP JUMP JUMPDEST PUSH2 0xF7E DUP3 PUSH2 0x836 JUMP JUMPDEST PUSH8 0xFFFFFFFFFFFFFFFF DUP2 GT ISZERO PUSH2 0xF97 JUMPI PUSH2 0xF96 PUSH2 0x900 JUMP JUMPDEST JUMPDEST PUSH2 0xFA1 DUP3 SLOAD PUSH2 0xC07 JUMP JUMPDEST PUSH2 0xFAC DUP3 DUP3 DUP6 PUSH2 0xEEC JUMP JUMPDEST PUSH0 PUSH1 0x20 SWAP1 POP PUSH1 0x1F DUP4 GT PUSH1 0x1 DUP2 EQ PUSH2 0xFDD JUMPI PUSH0 DUP5 ISZERO PUSH2 0xFCB JUMPI DUP3 DUP8 ADD MLOAD SWAP1 POP JUMPDEST PUSH2 0xFD5 DUP6 DUP3 PUSH2 0xF5A JUMP JUMPDEST DUP7 SSTORE POP PUSH2 0x103C JUMP JUMPDEST PUSH1 0x1F NOT DUP5 AND PUSH2 0xFEB DUP7 PUSH2 0xCB4 JUMP JUMPDEST PUSH0 JUMPDEST DUP3 DUP2 LT ISZERO PUSH2 0x1012 JUMPI DUP5 DUP10 ADD MLOAD DUP3 SSTORE PUSH1 0x1 DUP3 ADD SWAP2 POP PUSH1 0x20 DUP6 ADD SWAP5 POP PUSH1 0x20 DUP2 ADD SWAP1 POP PUSH2 0xFED JUMP JUMPDEST DUP7 DUP4 LT ISZERO PUSH2 0x102F JUMPI DUP5 DUP10 ADD MLOAD PUSH2 0x102B PUSH1 0x1F DUP10 AND DUP3 PUSH2 0xF3E JUMP JUMPDEST DUP4 SSTORE POP JUMPDEST PUSH1 0x1 PUSH1 0x2 DUP9 MUL ADD DUP9 SSTORE POP POP POP JUMPDEST POP POP POP POP POP POP JUMP JUMPDEST PUSH32 0x4E487B7100000000000000000000000000000000000000000000000000000000 PUSH0 MSTORE PUSH1 0x11 PUSH1 0x4 MSTORE PUSH1 0x24 PUSH0 REVERT JUMPDEST PUSH0 PUSH2 0x107B DUP3 PUSH2 0x7D8 JUMP JUMPDEST SWAP2 POP PUSH2 0x1086 DUP4 PUSH2 0x7D8 JUMP JUMPDEST SWAP3 POP DUP3 DUP3 ADD SWAP1 POP DUP1 DUP3 GT ISZERO PUSH2 0x109E JUMPI PUSH2 0x109D PUSH2 0x1044 JUMP JUMPDEST JUMPDEST SWAP3 SWAP2 POP POP JUMP JUMPDEST PUSH0 PUSH2 0x10AE DUP3 PUSH2 0x7D8 JUMP JUMPDEST SWAP2 POP PUSH32 0xFFFFFFFFFFFFFFFFFFFFFFFFFFFFFFFFFFFFFFFFFFFFFFFFFFFFFFFFFFFFFFFF DUP3 SUB PUSH2 0x10E0 JUMPI PUSH2 0x10DF PUSH2 0x1044 JUMP JUMPDEST JUMPDEST PUSH1 0x1 DUP3 ADD SWAP1 POP SWAP2 SWAP1 POP JUMP JUMPDEST PUSH32 0x4E487B7100000000000000000000000000000000000000000000000000000000 PUSH0 MSTORE PUSH1 0x12 PUSH1 0x4 MSTORE PUSH1 0x24 PUSH0 REVERT JUMPDEST PUSH0 PUSH2 0x1122 DUP3 PUSH2 0x7D8 JUMP JUMPDEST SWAP2 POP PUSH2 0x112D DUP4 PUSH2 0x7D8 JUMP JUMPDEST SWAP3 POP DUP3 PUSH2 0x113D JUMPI PUSH2 0x113C PUSH2 0x10EB JUMP JUMPDEST JUMPDEST DUP3 DUP3 DIV SWAP1 POP SWAP3 SWAP2 POP POP JUMP INVALID LOG2 PUSH5 0x6970667358 0x22 SLT KECCAK256 0x4D 0x4B 0xCF SHL PUSH4 0x77E7F6F2 GASPRICE CODECOPY SWAP2 EXTCODECOPY 0x4C 0xDB BLOBHASH 0x23 EXP INVALID 0xD8 0xE5 0xD7 MULMOD 0xEE 0x26 PC PUSH32 0x7EBCDAFD7564736F6C634300081A003300000000000000000000000000000000 "
				},
				"gasEstimates": {
					"creation": {
						"codeDepositCost": "895600",
						"executionCost": "25192",
						"totalCost": "920792"
					},
					"external": {
						"addGrade(string,string,uint256)": "infinite",
						"averageGrade(string)": "infinite",
						"getGrade(string,string)": "infinite",
						"grades(uint256)": "infinite",
						"owner()": "2552",
						"updateGrade(string,string,uint256)": "infinite"
					}
				},
				"methodIdentifiers": {
					"addGrade(string,string,uint256)": "a8ea6212",
					"averageGrade(string)": "ee43deb7",
					"getGrade(string,string)": "4cae0eb4",
					"grades(uint256)": "4b22fc62",
					"owner()": "8da5cb5b",
					"updateGrade(string,string,uint256)": "86d57c08"
				}
			},
			"storageLayout": {
				"storage": [
					{
						"astId": 12,
						"contract": "GRADEBOOK.SOL:GradeBook",
						"label": "grades",
						"offset": 0,
						"slot": "0",
						"type": "t_array(t_struct(Grade)8_storage)dyn_storage"
					},
					{
						"astId": 14,
						"contract": "GRADEBOOK.SOL:GradeBook",
						"label": "owner",
						"offset": 0,
						"slot": "1",
						"type": "t_address"
					}
				],
				"types": {
					"t_address": {
						"encoding": "inplace",
						"label": "address",
						"numberOfBytes": "20"
					},
					"t_array(t_struct(Grade)8_storage)dyn_storage": {
						"base": "t_struct(Grade)8_storage",
						"encoding": "dynamic_array",
						"label": "struct GradeBook.Grade[]",
						"numberOfBytes": "32"
					},
					"t_string_storage": {
						"encoding": "bytes",
						"label": "string",
						"numberOfBytes": "32"
					},
					"t_struct(Grade)8_storage": {
						"encoding": "inplace",
						"label": "struct GradeBook.Grade",
						"members": [
							{
								"astId": 3,
								"contract": "GRADEBOOK.SOL:GradeBook",
								"label": "studentName",
								"offset": 0,
								"slot": "0",
								"type": "t_string_storage"
							},
							{
								"astId": 5,
								"contract": "GRADEBOOK.SOL:GradeBook",
								"label": "subject",
								"offset": 0,
								"slot": "1",
								"type": "t_string_storage"
							},
							{
								"astId": 7,
								"contract": "GRADEBOOK.SOL:GradeBook",
								"label": "grade",
								"offset": 0,
								"slot": "2",
								"type": "t_uint256"
							}
						],
						"numberOfBytes": "96"
					},
					"t_uint256": {
						"encoding": "inplace",
						"label": "uint256",
						"numberOfBytes": "32"
					}
				}
			},
			"userdoc": {
				"kind": "user",
				"methods": {},
				"version": 1
			}
		}
	}
}